{
	"contracts/day3.sol": {
		"day3": {
			"abi": [
				{
					"inputs": [
						{
							"internalType": "bool",
							"name": "value",
							"type": "bool"
						}
					],
					"name": "check1",
					"outputs": [],
					"stateMutability": "nonpayable",
					"type": "function"
				},
				{
					"inputs": [
						{
							"internalType": "bool",
							"name": "value",
							"type": "bool"
						}
					],
					"name": "check2",
					"outputs": [],
					"stateMutability": "nonpayable",
					"type": "function"
				},
				{
					"inputs": [
						{
							"internalType": "bool",
							"name": "value",
							"type": "bool"
						}
					],
					"name": "check3",
					"outputs": [],
					"stateMutability": "nonpayable",
					"type": "function"
				},
				{
					"inputs": [
						{
							"internalType": "bool",
							"name": "value",
							"type": "bool"
						}
					],
					"name": "check4",
					"outputs": [
						{
							"internalType": "uint256",
							"name": "",
							"type": "uint256"
						}
					],
					"stateMutability": "pure",
					"type": "function"
				},
				{
					"inputs": [
						{
							"internalType": "bool",
							"name": "value",
							"type": "bool"
						}
					],
					"name": "check5",
					"outputs": [],
					"stateMutability": "nonpayable",
					"type": "function"
				},
				{
					"inputs": [],
					"name": "loopCall",
					"outputs": [],
					"stateMutability": "nonpayable",
					"type": "function"
				},
				{
					"inputs": [],
					"name": "num",
					"outputs": [
						{
							"internalType": "uint256",
							"name": "",
							"type": "uint256"
						}
					],
					"stateMutability": "view",
					"type": "function"
				},
				{
					"inputs": [],
					"name": "sum",
					"outputs": [
						{
							"internalType": "uint256",
							"name": "",
							"type": "uint256"
						}
					],
					"stateMutability": "view",
					"type": "function"
				}
			],
			"devdoc": {
				"kind": "dev",
				"methods": {},
				"version": 1
			},
			"evm": {
				"assembly": "    /* \"contracts/day3.sol\":68:1125  contract day3{... */\n  mstore(0x40, 0x80)\n    /* \"contracts/day3.sol\":122:124  10 */\n  0x0a\n    /* \"contracts/day3.sol\":106:124  uint public num=10 */\n  0x00\n  sstore\n    /* \"contracts/day3.sol\":68:1125  contract day3{... */\n  callvalue\n  dup1\n  iszero\n  tag_1\n  jumpi\n  0x00\n  dup1\n  revert\ntag_1:\n  pop\n  dataSize(sub_0)\n  dup1\n  dataOffset(sub_0)\n  0x00\n  codecopy\n  0x00\n  return\nstop\n\nsub_0: assembly {\n        /* \"contracts/day3.sol\":68:1125  contract day3{... */\n      mstore(0x40, 0x80)\n      callvalue\n      dup1\n      iszero\n      tag_1\n      jumpi\n      0x00\n      dup1\n      revert\n    tag_1:\n      pop\n      jumpi(tag_2, lt(calldatasize, 0x04))\n      shr(0xe0, calldataload(0x00))\n      dup1\n      0x620f25ce\n      gt\n      tag_11\n      jumpi\n      dup1\n      0x620f25ce\n      eq\n      tag_7\n      jumpi\n      dup1\n      0x853255cc\n      eq\n      tag_8\n      jumpi\n      dup1\n      0x90a67462\n      eq\n      tag_9\n      jumpi\n      dup1\n      0xb8ed8c8d\n      eq\n      tag_10\n      jumpi\n      jump(tag_2)\n    tag_11:\n      dup1\n      0x07c90ca3\n      eq\n      tag_3\n      jumpi\n      dup1\n      0x1c13632d\n      eq\n      tag_4\n      jumpi\n      dup1\n      0x281dd794\n      eq\n      tag_5\n      jumpi\n      dup1\n      0x4e70b1dc\n      eq\n      tag_6\n      jumpi\n    tag_2:\n      0x00\n      dup1\n      revert\n        /* \"contracts/day3.sol\":559:732  function loopCall() public {... */\n    tag_3:\n      tag_12\n      tag_13\n      jump\t// in\n    tag_12:\n      stop\n        /* \"contracts/day3.sol\":396:474  function check3(bool value) public onlyValid(value) {... */\n    tag_4:\n      tag_14\n      0x04\n      dup1\n      calldatasize\n      sub\n      dup2\n      add\n      swap1\n      tag_15\n      swap2\n      swap1\n      tag_16\n      jump\t// in\n    tag_15:\n      tag_17\n      jump\t// in\n    tag_14:\n      stop\n        /* \"contracts/day3.sol\":228:306  function check1(bool value) public onlyValid(value) {... */\n    tag_5:\n      tag_18\n      0x04\n      dup1\n      calldatasize\n      sub\n      dup2\n      add\n      swap1\n      tag_19\n      swap2\n      swap1\n      tag_16\n      jump\t// in\n    tag_19:\n      tag_20\n      jump\t// in\n    tag_18:\n      stop\n        /* \"contracts/day3.sol\":106:124  uint public num=10 */\n    tag_6:\n      tag_21\n      tag_22\n      jump\t// in\n    tag_21:\n      mload(0x40)\n      tag_23\n      swap2\n      swap1\n      tag_24\n      jump\t// in\n    tag_23:\n      mload(0x40)\n      dup1\n      swap2\n      sub\n      swap1\n      return\n        /* \"contracts/day3.sol\":312:390  function check2(bool value) public onlyValid(value) {... */\n    tag_7:\n      tag_25\n      0x04\n      dup1\n      calldatasize\n      sub\n      dup2\n      add\n      swap1\n      tag_26\n      swap2\n      swap1\n      tag_16\n      jump\t// in\n    tag_26:\n      tag_27\n      jump\t// in\n    tag_25:\n      stop\n        /* \"contracts/day3.sol\":537:552  uint public sum */\n    tag_8:\n      tag_28\n      tag_29\n      jump\t// in\n    tag_28:\n      mload(0x40)\n      tag_30\n      swap2\n      swap1\n      tag_24\n      jump\t// in\n    tag_30:\n      mload(0x40)\n      dup1\n      swap2\n      sub\n      swap1\n      return\n        /* \"contracts/day3.sol\":1011:1116  function check5(bool value) public{... */\n    tag_9:\n      tag_31\n      0x04\n      dup1\n      calldatasize\n      sub\n      dup2\n      add\n      swap1\n      tag_32\n      swap2\n      swap1\n      tag_16\n      jump\t// in\n    tag_32:\n      tag_33\n      jump\t// in\n    tag_31:\n      stop\n        /* \"contracts/day3.sol\":809:970  function check4(bool value) public pure returns (uint){... */\n    tag_10:\n      tag_34\n      0x04\n      dup1\n      calldatasize\n      sub\n      dup2\n      add\n      swap1\n      tag_35\n      swap2\n      swap1\n      tag_16\n      jump\t// in\n    tag_35:\n      tag_36\n      jump\t// in\n    tag_34:\n      mload(0x40)\n      tag_37\n      swap2\n      swap1\n      tag_24\n      jump\t// in\n    tag_37:\n      mload(0x40)\n      dup1\n      swap2\n      sub\n      swap1\n      return\n        /* \"contracts/day3.sol\":559:732  function loopCall() public {... */\n    tag_13:\n        /* \"contracts/day3.sol\":601:607  uint i */\n      0x00\n        /* \"contracts/day3.sol\":597:650  for(uint i=0; i<10; i++){... */\n    tag_39:\n        /* \"contracts/day3.sol\":613:615  10 */\n      0x0a\n        /* \"contracts/day3.sol\":611:612  i */\n      dup2\n        /* \"contracts/day3.sol\":611:615  i<10 */\n      lt\n        /* \"contracts/day3.sol\":597:650  for(uint i=0; i<10; i++){... */\n      iszero\n      tag_40\n      jumpi\n        /* \"contracts/day3.sol\":641:642  i */\n      dup1\n        /* \"contracts/day3.sol\":636:639  sum */\n      0x01\n      0x00\n        /* \"contracts/day3.sol\":636:642  sum+=i */\n      dup3\n      dup3\n      sload\n      tag_42\n      swap2\n      swap1\n      tag_43\n      jump\t// in\n    tag_42:\n      swap3\n      pop\n      pop\n      dup2\n      swap1\n      sstore\n      pop\n        /* \"contracts/day3.sol\":617:620  i++ */\n      dup1\n      dup1\n      0x01\n      add\n      swap2\n      pop\n      pop\n        /* \"contracts/day3.sol\":597:650  for(uint i=0; i<10; i++){... */\n      jump(tag_39)\n    tag_40:\n      pop\n        /* \"contracts/day3.sol\":559:732  function loopCall() public {... */\n      jump\t// out\n        /* \"contracts/day3.sol\":396:474  function check3(bool value) public onlyValid(value) {... */\n    tag_17:\n        /* \"contracts/day3.sol\":441:446  value */\n      dup1\n        /* \"contracts/day3.sol\":184:189  value */\n      dup1\n        /* \"contracts/day3.sol\":178:189  true==value */\n      iszero\n      iszero\n        /* \"contracts/day3.sol\":178:182  true */\n      0x01\n        /* \"contracts/day3.sol\":178:189  true==value */\n      iszero\n      iszero\n      eq\n        /* \"contracts/day3.sol\":170:203  require(true==value, \"Not Valid\") */\n      tag_45\n      jumpi\n      mload(0x40)\n      0x08c379a000000000000000000000000000000000000000000000000000000000\n      dup2\n      mstore\n      0x04\n      add\n      tag_46\n      swap1\n      tag_47\n      jump\t// in\n    tag_46:\n      mload(0x40)\n      dup1\n      swap2\n      sub\n      swap1\n      revert\n    tag_45:\n        /* \"contracts/day3.sol\":463:466  300 */\n      0x012c\n        /* \"contracts/day3.sol\":459:462  num */\n      0x00\n        /* \"contracts/day3.sol\":459:466  num=300 */\n      dup2\n      swap1\n      sstore\n      pop\n        /* \"contracts/day3.sol\":396:474  function check3(bool value) public onlyValid(value) {... */\n      pop\n      pop\n      jump\t// out\n        /* \"contracts/day3.sol\":228:306  function check1(bool value) public onlyValid(value) {... */\n    tag_20:\n        /* \"contracts/day3.sol\":273:278  value */\n      dup1\n        /* \"contracts/day3.sol\":184:189  value */\n      dup1\n        /* \"contracts/day3.sol\":178:189  true==value */\n      iszero\n      iszero\n        /* \"contracts/day3.sol\":178:182  true */\n      0x01\n        /* \"contracts/day3.sol\":178:189  true==value */\n      iszero\n      iszero\n      eq\n        /* \"contracts/day3.sol\":170:203  require(true==value, \"Not Valid\") */\n      tag_50\n      jumpi\n      mload(0x40)\n      0x08c379a000000000000000000000000000000000000000000000000000000000\n      dup2\n      mstore\n      0x04\n      add\n      tag_51\n      swap1\n      tag_47\n      jump\t// in\n    tag_51:\n      mload(0x40)\n      dup1\n      swap2\n      sub\n      swap1\n      revert\n    tag_50:\n        /* \"contracts/day3.sol\":295:298  100 */\n      0x64\n        /* \"contracts/day3.sol\":291:294  num */\n      0x00\n        /* \"contracts/day3.sol\":291:298  num=100 */\n      dup2\n      swap1\n      sstore\n      pop\n        /* \"contracts/day3.sol\":228:306  function check1(bool value) public onlyValid(value) {... */\n      pop\n      pop\n      jump\t// out\n        /* \"contracts/day3.sol\":106:124  uint public num=10 */\n    tag_22:\n      sload(0x00)\n      dup2\n      jump\t// out\n        /* \"contracts/day3.sol\":312:390  function check2(bool value) public onlyValid(value) {... */\n    tag_27:\n        /* \"contracts/day3.sol\":357:362  value */\n      dup1\n        /* \"contracts/day3.sol\":184:189  value */\n      dup1\n        /* \"contracts/day3.sol\":178:189  true==value */\n      iszero\n      iszero\n        /* \"contracts/day3.sol\":178:182  true */\n      0x01\n        /* \"contracts/day3.sol\":178:189  true==value */\n      iszero\n      iszero\n      eq\n        /* \"contracts/day3.sol\":170:203  require(true==value, \"Not Valid\") */\n      tag_54\n      jumpi\n      mload(0x40)\n      0x08c379a000000000000000000000000000000000000000000000000000000000\n      dup2\n      mstore\n      0x04\n      add\n      tag_55\n      swap1\n      tag_47\n      jump\t// in\n    tag_55:\n      mload(0x40)\n      dup1\n      swap2\n      sub\n      swap1\n      revert\n    tag_54:\n        /* \"contracts/day3.sol\":379:382  200 */\n      0xc8\n        /* \"contracts/day3.sol\":375:378  num */\n      0x00\n        /* \"contracts/day3.sol\":375:382  num=200 */\n      dup2\n      swap1\n      sstore\n      pop\n        /* \"contracts/day3.sol\":312:390  function check2(bool value) public onlyValid(value) {... */\n      pop\n      pop\n      jump\t// out\n        /* \"contracts/day3.sol\":537:552  uint public sum */\n    tag_29:\n      sload(0x01)\n      dup2\n      jump\t// out\n        /* \"contracts/day3.sol\":1011:1116  function check5(bool value) public{... */\n    tag_33:\n        /* \"contracts/day3.sol\":1071:1075  true */\n      0x01\n        /* \"contracts/day3.sol\":1064:1075  value==true */\n      iszero\n      iszero\n        /* \"contracts/day3.sol\":1064:1069  value */\n      dup2\n        /* \"contracts/day3.sol\":1064:1075  value==true */\n      iszero\n      iszero\n      eq\n        /* \"contracts/day3.sol\":1056:1088  require(value==true, \"Not True\") */\n      tag_58\n      jumpi\n      mload(0x40)\n      0x08c379a000000000000000000000000000000000000000000000000000000000\n      dup2\n      mstore\n      0x04\n      add\n      tag_59\n      swap1\n      tag_60\n      jump\t// in\n    tag_59:\n      mload(0x40)\n      dup1\n      swap2\n      sub\n      swap1\n      revert\n    tag_58:\n        /* \"contracts/day3.sol\":1105:1108  100 */\n      0x64\n        /* \"contracts/day3.sol\":1099:1102  num */\n      0x00\n        /* \"contracts/day3.sol\":1099:1108  num = 100 */\n      dup2\n      swap1\n      sstore\n      pop\n        /* \"contracts/day3.sol\":1011:1116  function check5(bool value) public{... */\n      pop\n      jump\t// out\n        /* \"contracts/day3.sol\":809:970  function check4(bool value) public pure returns (uint){... */\n    tag_36:\n        /* \"contracts/day3.sol\":858:862  uint */\n      0x00\n        /* \"contracts/day3.sol\":884:888  true */\n      0x01\n        /* \"contracts/day3.sol\":877:888  value==true */\n      iszero\n      iszero\n        /* \"contracts/day3.sol\":877:882  value */\n      dup3\n        /* \"contracts/day3.sol\":877:888  value==true */\n      iszero\n      iszero\n      sub\n        /* \"contracts/day3.sol\":874:963  if(value==true){... */\n      tag_62\n      jumpi\n        /* \"contracts/day3.sol\":911:912  1 */\n      0x01\n        /* \"contracts/day3.sol\":904:912  return 1 */\n      swap1\n      pop\n      jump(tag_61)\n        /* \"contracts/day3.sol\":874:963  if(value==true){... */\n    tag_62:\n        /* \"contracts/day3.sol\":950:951  0 */\n      0x00\n        /* \"contracts/day3.sol\":943:951  return 0 */\n      swap1\n      pop\n        /* \"contracts/day3.sol\":809:970  function check4(bool value) public pure returns (uint){... */\n    tag_61:\n      swap2\n      swap1\n      pop\n      jump\t// out\n        /* \"#utility.yul\":88:205   */\n    tag_65:\n        /* \"#utility.yul\":197:198   */\n      0x00\n        /* \"#utility.yul\":194:195   */\n      dup1\n        /* \"#utility.yul\":187:199   */\n      revert\n        /* \"#utility.yul\":334:424   */\n    tag_67:\n        /* \"#utility.yul\":368:375   */\n      0x00\n        /* \"#utility.yul\":411:416   */\n      dup2\n        /* \"#utility.yul\":404:417   */\n      iszero\n        /* \"#utility.yul\":397:418   */\n      iszero\n        /* \"#utility.yul\":386:418   */\n      swap1\n      pop\n        /* \"#utility.yul\":334:424   */\n      swap2\n      swap1\n      pop\n      jump\t// out\n        /* \"#utility.yul\":430:546   */\n    tag_68:\n        /* \"#utility.yul\":500:521   */\n      tag_84\n        /* \"#utility.yul\":515:520   */\n      dup2\n        /* \"#utility.yul\":500:521   */\n      tag_67\n      jump\t// in\n    tag_84:\n        /* \"#utility.yul\":493:498   */\n      dup2\n        /* \"#utility.yul\":490:522   */\n      eq\n        /* \"#utility.yul\":480:540   */\n      tag_85\n      jumpi\n        /* \"#utility.yul\":536:537   */\n      0x00\n        /* \"#utility.yul\":533:534   */\n      dup1\n        /* \"#utility.yul\":526:538   */\n      revert\n        /* \"#utility.yul\":480:540   */\n    tag_85:\n        /* \"#utility.yul\":430:546   */\n      pop\n      jump\t// out\n        /* \"#utility.yul\":552:685   */\n    tag_69:\n        /* \"#utility.yul\":595:600   */\n      0x00\n        /* \"#utility.yul\":633:639   */\n      dup2\n        /* \"#utility.yul\":620:640   */\n      calldataload\n        /* \"#utility.yul\":611:640   */\n      swap1\n      pop\n        /* \"#utility.yul\":649:679   */\n      tag_87\n        /* \"#utility.yul\":673:678   */\n      dup2\n        /* \"#utility.yul\":649:679   */\n      tag_68\n      jump\t// in\n    tag_87:\n        /* \"#utility.yul\":552:685   */\n      swap3\n      swap2\n      pop\n      pop\n      jump\t// out\n        /* \"#utility.yul\":691:1014   */\n    tag_16:\n        /* \"#utility.yul\":747:753   */\n      0x00\n        /* \"#utility.yul\":796:798   */\n      0x20\n        /* \"#utility.yul\":784:793   */\n      dup3\n        /* \"#utility.yul\":775:782   */\n      dup5\n        /* \"#utility.yul\":771:794   */\n      sub\n        /* \"#utility.yul\":767:799   */\n      slt\n        /* \"#utility.yul\":764:883   */\n      iszero\n      tag_89\n      jumpi\n        /* \"#utility.yul\":802:881   */\n      tag_90\n      tag_65\n      jump\t// in\n    tag_90:\n        /* \"#utility.yul\":764:883   */\n    tag_89:\n        /* \"#utility.yul\":922:923   */\n      0x00\n        /* \"#utility.yul\":947:997   */\n      tag_91\n        /* \"#utility.yul\":989:996   */\n      dup5\n        /* \"#utility.yul\":980:986   */\n      dup3\n        /* \"#utility.yul\":969:978   */\n      dup6\n        /* \"#utility.yul\":965:987   */\n      add\n        /* \"#utility.yul\":947:997   */\n      tag_69\n      jump\t// in\n    tag_91:\n        /* \"#utility.yul\":937:997   */\n      swap2\n      pop\n        /* \"#utility.yul\":893:1007   */\n      pop\n        /* \"#utility.yul\":691:1014   */\n      swap3\n      swap2\n      pop\n      pop\n      jump\t// out\n        /* \"#utility.yul\":1020:1097   */\n    tag_70:\n        /* \"#utility.yul\":1057:1064   */\n      0x00\n        /* \"#utility.yul\":1086:1091   */\n      dup2\n        /* \"#utility.yul\":1075:1091   */\n      swap1\n      pop\n        /* \"#utility.yul\":1020:1097   */\n      swap2\n      swap1\n      pop\n      jump\t// out\n        /* \"#utility.yul\":1103:1221   */\n    tag_71:\n        /* \"#utility.yul\":1190:1214   */\n      tag_94\n        /* \"#utility.yul\":1208:1213   */\n      dup2\n        /* \"#utility.yul\":1190:1214   */\n      tag_70\n      jump\t// in\n    tag_94:\n        /* \"#utility.yul\":1185:1188   */\n      dup3\n        /* \"#utility.yul\":1178:1215   */\n      mstore\n        /* \"#utility.yul\":1103:1221   */\n      pop\n      pop\n      jump\t// out\n        /* \"#utility.yul\":1227:1449   */\n    tag_24:\n        /* \"#utility.yul\":1320:1324   */\n      0x00\n        /* \"#utility.yul\":1358:1360   */\n      0x20\n        /* \"#utility.yul\":1347:1356   */\n      dup3\n        /* \"#utility.yul\":1343:1361   */\n      add\n        /* \"#utility.yul\":1335:1361   */\n      swap1\n      pop\n        /* \"#utility.yul\":1371:1442   */\n      tag_96\n        /* \"#utility.yul\":1439:1440   */\n      0x00\n        /* \"#utility.yul\":1428:1437   */\n      dup4\n        /* \"#utility.yul\":1424:1441   */\n      add\n        /* \"#utility.yul\":1415:1421   */\n      dup5\n        /* \"#utility.yul\":1371:1442   */\n      tag_71\n      jump\t// in\n    tag_96:\n        /* \"#utility.yul\":1227:1449   */\n      swap3\n      swap2\n      pop\n      pop\n      jump\t// out\n        /* \"#utility.yul\":1455:1635   */\n    tag_72:\n        /* \"#utility.yul\":1503:1580   */\n      0x4e487b7100000000000000000000000000000000000000000000000000000000\n        /* \"#utility.yul\":1500:1501   */\n      0x00\n        /* \"#utility.yul\":1493:1581   */\n      mstore\n        /* \"#utility.yul\":1600:1604   */\n      0x11\n        /* \"#utility.yul\":1597:1598   */\n      0x04\n        /* \"#utility.yul\":1590:1605   */\n      mstore\n        /* \"#utility.yul\":1624:1628   */\n      0x24\n        /* \"#utility.yul\":1621:1622   */\n      0x00\n        /* \"#utility.yul\":1614:1629   */\n      revert\n        /* \"#utility.yul\":1641:1832   */\n    tag_43:\n        /* \"#utility.yul\":1681:1684   */\n      0x00\n        /* \"#utility.yul\":1700:1720   */\n      tag_99\n        /* \"#utility.yul\":1718:1719   */\n      dup3\n        /* \"#utility.yul\":1700:1720   */\n      tag_70\n      jump\t// in\n    tag_99:\n        /* \"#utility.yul\":1695:1720   */\n      swap2\n      pop\n        /* \"#utility.yul\":1734:1754   */\n      tag_100\n        /* \"#utility.yul\":1752:1753   */\n      dup4\n        /* \"#utility.yul\":1734:1754   */\n      tag_70\n      jump\t// in\n    tag_100:\n        /* \"#utility.yul\":1729:1754   */\n      swap3\n      pop\n        /* \"#utility.yul\":1777:1778   */\n      dup3\n        /* \"#utility.yul\":1774:1775   */\n      dup3\n        /* \"#utility.yul\":1770:1779   */\n      add\n        /* \"#utility.yul\":1763:1779   */\n      swap1\n      pop\n        /* \"#utility.yul\":1798:1801   */\n      dup1\n        /* \"#utility.yul\":1795:1796   */\n      dup3\n        /* \"#utility.yul\":1792:1802   */\n      gt\n        /* \"#utility.yul\":1789:1825   */\n      iszero\n      tag_101\n      jumpi\n        /* \"#utility.yul\":1805:1823   */\n      tag_102\n      tag_72\n      jump\t// in\n    tag_102:\n        /* \"#utility.yul\":1789:1825   */\n    tag_101:\n        /* \"#utility.yul\":1641:1832   */\n      swap3\n      swap2\n      pop\n      pop\n      jump\t// out\n        /* \"#utility.yul\":1838:2007   */\n    tag_73:\n        /* \"#utility.yul\":1922:1933   */\n      0x00\n        /* \"#utility.yul\":1956:1962   */\n      dup3\n        /* \"#utility.yul\":1951:1954   */\n      dup3\n        /* \"#utility.yul\":1944:1963   */\n      mstore\n        /* \"#utility.yul\":1996:2000   */\n      0x20\n        /* \"#utility.yul\":1991:1994   */\n      dup3\n        /* \"#utility.yul\":1987:2001   */\n      add\n        /* \"#utility.yul\":1972:2001   */\n      swap1\n      pop\n        /* \"#utility.yul\":1838:2007   */\n      swap3\n      swap2\n      pop\n      pop\n      jump\t// out\n        /* \"#utility.yul\":2013:2172   */\n    tag_74:\n        /* \"#utility.yul\":2153:2164   */\n      0x4e6f742056616c69640000000000000000000000000000000000000000000000\n        /* \"#utility.yul\":2149:2150   */\n      0x00\n        /* \"#utility.yul\":2141:2147   */\n      dup3\n        /* \"#utility.yul\":2137:2151   */\n      add\n        /* \"#utility.yul\":2130:2165   */\n      mstore\n        /* \"#utility.yul\":2013:2172   */\n      pop\n      jump\t// out\n        /* \"#utility.yul\":2178:2543   */\n    tag_75:\n        /* \"#utility.yul\":2320:2323   */\n      0x00\n        /* \"#utility.yul\":2341:2407   */\n      tag_106\n        /* \"#utility.yul\":2405:2406   */\n      0x09\n        /* \"#utility.yul\":2400:2403   */\n      dup4\n        /* \"#utility.yul\":2341:2407   */\n      tag_73\n      jump\t// in\n    tag_106:\n        /* \"#utility.yul\":2334:2407   */\n      swap2\n      pop\n        /* \"#utility.yul\":2416:2509   */\n      tag_107\n        /* \"#utility.yul\":2505:2508   */\n      dup3\n        /* \"#utility.yul\":2416:2509   */\n      tag_74\n      jump\t// in\n    tag_107:\n        /* \"#utility.yul\":2534:2536   */\n      0x20\n        /* \"#utility.yul\":2529:2532   */\n      dup3\n        /* \"#utility.yul\":2525:2537   */\n      add\n        /* \"#utility.yul\":2518:2537   */\n      swap1\n      pop\n        /* \"#utility.yul\":2178:2543   */\n      swap2\n      swap1\n      pop\n      jump\t// out\n        /* \"#utility.yul\":2549:2968   */\n    tag_47:\n        /* \"#utility.yul\":2715:2719   */\n      0x00\n        /* \"#utility.yul\":2753:2755   */\n      0x20\n        /* \"#utility.yul\":2742:2751   */\n      dup3\n        /* \"#utility.yul\":2738:2756   */\n      add\n        /* \"#utility.yul\":2730:2756   */\n      swap1\n      pop\n        /* \"#utility.yul\":2802:2811   */\n      dup2\n        /* \"#utility.yul\":2796:2800   */\n      dup2\n        /* \"#utility.yul\":2792:2812   */\n      sub\n        /* \"#utility.yul\":2788:2789   */\n      0x00\n        /* \"#utility.yul\":2777:2786   */\n      dup4\n        /* \"#utility.yul\":2773:2790   */\n      add\n        /* \"#utility.yul\":2766:2813   */\n      mstore\n        /* \"#utility.yul\":2830:2961   */\n      tag_109\n        /* \"#utility.yul\":2956:2960   */\n      dup2\n        /* \"#utility.yul\":2830:2961   */\n      tag_75\n      jump\t// in\n    tag_109:\n        /* \"#utility.yul\":2822:2961   */\n      swap1\n      pop\n        /* \"#utility.yul\":2549:2968   */\n      swap2\n      swap1\n      pop\n      jump\t// out\n        /* \"#utility.yul\":2974:3132   */\n    tag_76:\n        /* \"#utility.yul\":3114:3124   */\n      0x4e6f742054727565000000000000000000000000000000000000000000000000\n        /* \"#utility.yul\":3110:3111   */\n      0x00\n        /* \"#utility.yul\":3102:3108   */\n      dup3\n        /* \"#utility.yul\":3098:3112   */\n      add\n        /* \"#utility.yul\":3091:3125   */\n      mstore\n        /* \"#utility.yul\":2974:3132   */\n      pop\n      jump\t// out\n        /* \"#utility.yul\":3138:3503   */\n    tag_77:\n        /* \"#utility.yul\":3280:3283   */\n      0x00\n        /* \"#utility.yul\":3301:3367   */\n      tag_112\n        /* \"#utility.yul\":3365:3366   */\n      0x08\n        /* \"#utility.yul\":3360:3363   */\n      dup4\n        /* \"#utility.yul\":3301:3367   */\n      tag_73\n      jump\t// in\n    tag_112:\n        /* \"#utility.yul\":3294:3367   */\n      swap2\n      pop\n        /* \"#utility.yul\":3376:3469   */\n      tag_113\n        /* \"#utility.yul\":3465:3468   */\n      dup3\n        /* \"#utility.yul\":3376:3469   */\n      tag_76\n      jump\t// in\n    tag_113:\n        /* \"#utility.yul\":3494:3496   */\n      0x20\n        /* \"#utility.yul\":3489:3492   */\n      dup3\n        /* \"#utility.yul\":3485:3497   */\n      add\n        /* \"#utility.yul\":3478:3497   */\n      swap1\n      pop\n        /* \"#utility.yul\":3138:3503   */\n      swap2\n      swap1\n      pop\n      jump\t// out\n        /* \"#utility.yul\":3509:3928   */\n    tag_60:\n        /* \"#utility.yul\":3675:3679   */\n      0x00\n        /* \"#utility.yul\":3713:3715   */\n      0x20\n        /* \"#utility.yul\":3702:3711   */\n      dup3\n        /* \"#utility.yul\":3698:3716   */\n      add\n        /* \"#utility.yul\":3690:3716   */\n      swap1\n      pop\n        /* \"#utility.yul\":3762:3771   */\n      dup2\n        /* \"#utility.yul\":3756:3760   */\n      dup2\n        /* \"#utility.yul\":3752:3772   */\n      sub\n        /* \"#utility.yul\":3748:3749   */\n      0x00\n        /* \"#utility.yul\":3737:3746   */\n      dup4\n        /* \"#utility.yul\":3733:3750   */\n      add\n        /* \"#utility.yul\":3726:3773   */\n      mstore\n        /* \"#utility.yul\":3790:3921   */\n      tag_115\n        /* \"#utility.yul\":3916:3920   */\n      dup2\n        /* \"#utility.yul\":3790:3921   */\n      tag_77\n      jump\t// in\n    tag_115:\n        /* \"#utility.yul\":3782:3921   */\n      swap1\n      pop\n        /* \"#utility.yul\":3509:3928   */\n      swap2\n      swap1\n      pop\n      jump\t// out\n\n    auxdata: 0xa2646970667358221220ab53eca85bb4f16a5bbb279c7661e81d74c13d486da1763bf521dd767bfd095164736f6c63430008180033\n}\n",
				"bytecode": {
					"linkReferences": {},
					"object": "6080604052600a5f55348015610013575f80fd5b50610523806100215f395ff3fe608060405234801561000f575f80fd5b5060043610610086575f3560e01c8063620f25ce11610059578063620f25ce146100ea578063853255cc1461010657806390a6746214610124578063b8ed8c8d1461014057610086565b806307c90ca31461008a5780631c13632d14610094578063281dd794146100b05780634e70b1dc146100cc575b5f80fd5b610092610170565b005b6100ae60048036038101906100a99190610351565b6101a3565b005b6100ca60048036038101906100c59190610351565b6101f7565b005b6100d461024a565b6040516100e19190610394565b60405180910390f35b61010460048036038101906100ff9190610351565b61024f565b005b61010e6102a2565b60405161011b9190610394565b60405180910390f35b61013e60048036038101906101399190610351565b6102a8565b005b61015a60048036038101906101559190610351565b6102f9565b6040516101679190610394565b60405180910390f35b5f5b600a8110156101a0578060015f82825461018c91906103da565b925050819055508080600101915050610172565b50565b8080151560011515146101eb576040517f08c379a00000000000000000000000000000000000000000000000000000000081526004016101e290610467565b60405180910390fd5b61012c5f819055505050565b80801515600115151461023f576040517f08c379a000000000000000000000000000000000000000000000000000000000815260040161023690610467565b60405180910390fd5b60645f819055505050565b5f5481565b808015156001151514610297576040517f08c379a000000000000000000000000000000000000000000000000000000000815260040161028e90610467565b60405180910390fd5b60c85f819055505050565b60015481565b60011515811515146102ef576040517f08c379a00000000000000000000000000000000000000000000000000000000081526004016102e6906104cf565b60405180910390fd5b60645f8190555050565b5f600115158215150361030f5760019050610313565b5f90505b919050565b5f80fd5b5f8115159050919050565b6103308161031c565b811461033a575f80fd5b50565b5f8135905061034b81610327565b92915050565b5f6020828403121561036657610365610318565b5b5f6103738482850161033d565b91505092915050565b5f819050919050565b61038e8161037c565b82525050565b5f6020820190506103a75f830184610385565b92915050565b7f4e487b71000000000000000000000000000000000000000000000000000000005f52601160045260245ffd5b5f6103e48261037c565b91506103ef8361037c565b9250828201905080821115610407576104066103ad565b5b92915050565b5f82825260208201905092915050565b7f4e6f742056616c696400000000000000000000000000000000000000000000005f82015250565b5f61045160098361040d565b915061045c8261041d565b602082019050919050565b5f6020820190508181035f83015261047e81610445565b9050919050565b7f4e6f7420547275650000000000000000000000000000000000000000000000005f82015250565b5f6104b960088361040d565b91506104c482610485565b602082019050919050565b5f6020820190508181035f8301526104e6816104ad565b905091905056fea2646970667358221220ab53eca85bb4f16a5bbb279c7661e81d74c13d486da1763bf521dd767bfd095164736f6c63430008180033",
					"opcodes": "PUSH1 0x80 PUSH1 0x40 MSTORE PUSH1 0xA PUSH0 SSTORE CALLVALUE DUP1 ISZERO PUSH2 0x13 JUMPI PUSH0 DUP1 REVERT JUMPDEST POP PUSH2 0x523 DUP1 PUSH2 0x21 PUSH0 CODECOPY PUSH0 RETURN INVALID PUSH1 0x80 PUSH1 0x40 MSTORE CALLVALUE DUP1 ISZERO PUSH2 0xF JUMPI PUSH0 DUP1 REVERT JUMPDEST POP PUSH1 0x4 CALLDATASIZE LT PUSH2 0x86 JUMPI PUSH0 CALLDATALOAD PUSH1 0xE0 SHR DUP1 PUSH4 0x620F25CE GT PUSH2 0x59 JUMPI DUP1 PUSH4 0x620F25CE EQ PUSH2 0xEA JUMPI DUP1 PUSH4 0x853255CC EQ PUSH2 0x106 JUMPI DUP1 PUSH4 0x90A67462 EQ PUSH2 0x124 JUMPI DUP1 PUSH4 0xB8ED8C8D EQ PUSH2 0x140 JUMPI PUSH2 0x86 JUMP JUMPDEST DUP1 PUSH4 0x7C90CA3 EQ PUSH2 0x8A JUMPI DUP1 PUSH4 0x1C13632D EQ PUSH2 0x94 JUMPI DUP1 PUSH4 0x281DD794 EQ PUSH2 0xB0 JUMPI DUP1 PUSH4 0x4E70B1DC EQ PUSH2 0xCC JUMPI JUMPDEST PUSH0 DUP1 REVERT JUMPDEST PUSH2 0x92 PUSH2 0x170 JUMP JUMPDEST STOP JUMPDEST PUSH2 0xAE PUSH1 0x4 DUP1 CALLDATASIZE SUB DUP2 ADD SWAP1 PUSH2 0xA9 SWAP2 SWAP1 PUSH2 0x351 JUMP JUMPDEST PUSH2 0x1A3 JUMP JUMPDEST STOP JUMPDEST PUSH2 0xCA PUSH1 0x4 DUP1 CALLDATASIZE SUB DUP2 ADD SWAP1 PUSH2 0xC5 SWAP2 SWAP1 PUSH2 0x351 JUMP JUMPDEST PUSH2 0x1F7 JUMP JUMPDEST STOP JUMPDEST PUSH2 0xD4 PUSH2 0x24A JUMP JUMPDEST PUSH1 0x40 MLOAD PUSH2 0xE1 SWAP2 SWAP1 PUSH2 0x394 JUMP JUMPDEST PUSH1 0x40 MLOAD DUP1 SWAP2 SUB SWAP1 RETURN JUMPDEST PUSH2 0x104 PUSH1 0x4 DUP1 CALLDATASIZE SUB DUP2 ADD SWAP1 PUSH2 0xFF SWAP2 SWAP1 PUSH2 0x351 JUMP JUMPDEST PUSH2 0x24F JUMP JUMPDEST STOP JUMPDEST PUSH2 0x10E PUSH2 0x2A2 JUMP JUMPDEST PUSH1 0x40 MLOAD PUSH2 0x11B SWAP2 SWAP1 PUSH2 0x394 JUMP JUMPDEST PUSH1 0x40 MLOAD DUP1 SWAP2 SUB SWAP1 RETURN JUMPDEST PUSH2 0x13E PUSH1 0x4 DUP1 CALLDATASIZE SUB DUP2 ADD SWAP1 PUSH2 0x139 SWAP2 SWAP1 PUSH2 0x351 JUMP JUMPDEST PUSH2 0x2A8 JUMP JUMPDEST STOP JUMPDEST PUSH2 0x15A PUSH1 0x4 DUP1 CALLDATASIZE SUB DUP2 ADD SWAP1 PUSH2 0x155 SWAP2 SWAP1 PUSH2 0x351 JUMP JUMPDEST PUSH2 0x2F9 JUMP JUMPDEST PUSH1 0x40 MLOAD PUSH2 0x167 SWAP2 SWAP1 PUSH2 0x394 JUMP JUMPDEST PUSH1 0x40 MLOAD DUP1 SWAP2 SUB SWAP1 RETURN JUMPDEST PUSH0 JUMPDEST PUSH1 0xA DUP2 LT ISZERO PUSH2 0x1A0 JUMPI DUP1 PUSH1 0x1 PUSH0 DUP3 DUP3 SLOAD PUSH2 0x18C SWAP2 SWAP1 PUSH2 0x3DA JUMP JUMPDEST SWAP3 POP POP DUP2 SWAP1 SSTORE POP DUP1 DUP1 PUSH1 0x1 ADD SWAP2 POP POP PUSH2 0x172 JUMP JUMPDEST POP JUMP JUMPDEST DUP1 DUP1 ISZERO ISZERO PUSH1 0x1 ISZERO ISZERO EQ PUSH2 0x1EB JUMPI PUSH1 0x40 MLOAD PUSH32 0x8C379A000000000000000000000000000000000000000000000000000000000 DUP2 MSTORE PUSH1 0x4 ADD PUSH2 0x1E2 SWAP1 PUSH2 0x467 JUMP JUMPDEST PUSH1 0x40 MLOAD DUP1 SWAP2 SUB SWAP1 REVERT JUMPDEST PUSH2 0x12C PUSH0 DUP2 SWAP1 SSTORE POP POP POP JUMP JUMPDEST DUP1 DUP1 ISZERO ISZERO PUSH1 0x1 ISZERO ISZERO EQ PUSH2 0x23F JUMPI PUSH1 0x40 MLOAD PUSH32 0x8C379A000000000000000000000000000000000000000000000000000000000 DUP2 MSTORE PUSH1 0x4 ADD PUSH2 0x236 SWAP1 PUSH2 0x467 JUMP JUMPDEST PUSH1 0x40 MLOAD DUP1 SWAP2 SUB SWAP1 REVERT JUMPDEST PUSH1 0x64 PUSH0 DUP2 SWAP1 SSTORE POP POP POP JUMP JUMPDEST PUSH0 SLOAD DUP2 JUMP JUMPDEST DUP1 DUP1 ISZERO ISZERO PUSH1 0x1 ISZERO ISZERO EQ PUSH2 0x297 JUMPI PUSH1 0x40 MLOAD PUSH32 0x8C379A000000000000000000000000000000000000000000000000000000000 DUP2 MSTORE PUSH1 0x4 ADD PUSH2 0x28E SWAP1 PUSH2 0x467 JUMP JUMPDEST PUSH1 0x40 MLOAD DUP1 SWAP2 SUB SWAP1 REVERT JUMPDEST PUSH1 0xC8 PUSH0 DUP2 SWAP1 SSTORE POP POP POP JUMP JUMPDEST PUSH1 0x1 SLOAD DUP2 JUMP JUMPDEST PUSH1 0x1 ISZERO ISZERO DUP2 ISZERO ISZERO EQ PUSH2 0x2EF JUMPI PUSH1 0x40 MLOAD PUSH32 0x8C379A000000000000000000000000000000000000000000000000000000000 DUP2 MSTORE PUSH1 0x4 ADD PUSH2 0x2E6 SWAP1 PUSH2 0x4CF JUMP JUMPDEST PUSH1 0x40 MLOAD DUP1 SWAP2 SUB SWAP1 REVERT JUMPDEST PUSH1 0x64 PUSH0 DUP2 SWAP1 SSTORE POP POP JUMP JUMPDEST PUSH0 PUSH1 0x1 ISZERO ISZERO DUP3 ISZERO ISZERO SUB PUSH2 0x30F JUMPI PUSH1 0x1 SWAP1 POP PUSH2 0x313 JUMP JUMPDEST PUSH0 SWAP1 POP JUMPDEST SWAP2 SWAP1 POP JUMP JUMPDEST PUSH0 DUP1 REVERT JUMPDEST PUSH0 DUP2 ISZERO ISZERO SWAP1 POP SWAP2 SWAP1 POP JUMP JUMPDEST PUSH2 0x330 DUP2 PUSH2 0x31C JUMP JUMPDEST DUP2 EQ PUSH2 0x33A JUMPI PUSH0 DUP1 REVERT JUMPDEST POP JUMP JUMPDEST PUSH0 DUP2 CALLDATALOAD SWAP1 POP PUSH2 0x34B DUP2 PUSH2 0x327 JUMP JUMPDEST SWAP3 SWAP2 POP POP JUMP JUMPDEST PUSH0 PUSH1 0x20 DUP3 DUP5 SUB SLT ISZERO PUSH2 0x366 JUMPI PUSH2 0x365 PUSH2 0x318 JUMP JUMPDEST JUMPDEST PUSH0 PUSH2 0x373 DUP5 DUP3 DUP6 ADD PUSH2 0x33D JUMP JUMPDEST SWAP2 POP POP SWAP3 SWAP2 POP POP JUMP JUMPDEST PUSH0 DUP2 SWAP1 POP SWAP2 SWAP1 POP JUMP JUMPDEST PUSH2 0x38E DUP2 PUSH2 0x37C JUMP JUMPDEST DUP3 MSTORE POP POP JUMP JUMPDEST PUSH0 PUSH1 0x20 DUP3 ADD SWAP1 POP PUSH2 0x3A7 PUSH0 DUP4 ADD DUP5 PUSH2 0x385 JUMP JUMPDEST SWAP3 SWAP2 POP POP JUMP JUMPDEST PUSH32 0x4E487B7100000000000000000000000000000000000000000000000000000000 PUSH0 MSTORE PUSH1 0x11 PUSH1 0x4 MSTORE PUSH1 0x24 PUSH0 REVERT JUMPDEST PUSH0 PUSH2 0x3E4 DUP3 PUSH2 0x37C JUMP JUMPDEST SWAP2 POP PUSH2 0x3EF DUP4 PUSH2 0x37C JUMP JUMPDEST SWAP3 POP DUP3 DUP3 ADD SWAP1 POP DUP1 DUP3 GT ISZERO PUSH2 0x407 JUMPI PUSH2 0x406 PUSH2 0x3AD JUMP JUMPDEST JUMPDEST SWAP3 SWAP2 POP POP JUMP JUMPDEST PUSH0 DUP3 DUP3 MSTORE PUSH1 0x20 DUP3 ADD SWAP1 POP SWAP3 SWAP2 POP POP JUMP JUMPDEST PUSH32 0x4E6F742056616C69640000000000000000000000000000000000000000000000 PUSH0 DUP3 ADD MSTORE POP JUMP JUMPDEST PUSH0 PUSH2 0x451 PUSH1 0x9 DUP4 PUSH2 0x40D JUMP JUMPDEST SWAP2 POP PUSH2 0x45C DUP3 PUSH2 0x41D JUMP JUMPDEST PUSH1 0x20 DUP3 ADD SWAP1 POP SWAP2 SWAP1 POP JUMP JUMPDEST PUSH0 PUSH1 0x20 DUP3 ADD SWAP1 POP DUP2 DUP2 SUB PUSH0 DUP4 ADD MSTORE PUSH2 0x47E DUP2 PUSH2 0x445 JUMP JUMPDEST SWAP1 POP SWAP2 SWAP1 POP JUMP JUMPDEST PUSH32 0x4E6F742054727565000000000000000000000000000000000000000000000000 PUSH0 DUP3 ADD MSTORE POP JUMP JUMPDEST PUSH0 PUSH2 0x4B9 PUSH1 0x8 DUP4 PUSH2 0x40D JUMP JUMPDEST SWAP2 POP PUSH2 0x4C4 DUP3 PUSH2 0x485 JUMP JUMPDEST PUSH1 0x20 DUP3 ADD SWAP1 POP SWAP2 SWAP1 POP JUMP JUMPDEST PUSH0 PUSH1 0x20 DUP3 ADD SWAP1 POP DUP2 DUP2 SUB PUSH0 DUP4 ADD MSTORE PUSH2 0x4E6 DUP2 PUSH2 0x4AD JUMP JUMPDEST SWAP1 POP SWAP2 SWAP1 POP JUMP INVALID LOG2 PUSH5 0x6970667358 0x22 SLT KECCAK256 0xAB MSTORE8 0xEC 0xA8 JUMPDEST 0xB4 CALL PUSH11 0x5BBB279C7661E81D74C13D BASEFEE PUSH14 0xA1763BF521DD767BFD095164736F PUSH13 0x63430008180033000000000000 "
				},
				"gasEstimates": {
					"creation": {
						"codeDepositCost": "263000",
						"executionCost": "22409",
						"totalCost": "285409"
					},
					"external": {
						"check1(bool)": "22605",
						"check2(bool)": "22560",
						"check3(bool)": "22583",
						"check4(bool)": "711",
						"check5(bool)": "22599",
						"loopCall()": "infinite",
						"num()": "2491",
						"sum()": "2447"
					}
				},
				"methodIdentifiers": {
					"check1(bool)": "281dd794",
					"check2(bool)": "620f25ce",
					"check3(bool)": "1c13632d",
					"check4(bool)": "b8ed8c8d",
					"check5(bool)": "90a67462",
					"loopCall()": "07c90ca3",
					"num()": "4e70b1dc",
					"sum()": "853255cc"
				}
			},
			"storageLayout": {
				"storage": [
					{
						"astId": 4,
						"contract": "contracts/day3.sol:day3",
						"label": "num",
						"offset": 0,
						"slot": "0",
						"type": "t_uint256"
					},
					{
						"astId": 58,
						"contract": "contracts/day3.sol:day3",
						"label": "sum",
						"offset": 0,
						"slot": "1",
						"type": "t_uint256"
					}
				],
				"types": {
					"t_uint256": {
						"encoding": "inplace",
						"label": "uint256",
						"numberOfBytes": "32"
					}
				}
			},
			"userdoc": {
				"kind": "user",
				"methods": {},
				"version": 1
			}
		}
	}
}