{
	"contracts/day2.sol": {
		"day2": {
			"abi": [
				{
					"inputs": [
						{
							"internalType": "uint256",
							"name": "a",
							"type": "uint256"
						}
					],
					"name": "isEven",
					"outputs": [],
					"stateMutability": "nonpayable",
					"type": "function"
				},
				{
					"inputs": [],
					"name": "num",
					"outputs": [
						{
							"internalType": "int8",
							"name": "",
							"type": "int8"
						}
					],
					"stateMutability": "view",
					"type": "function"
				},
				{
					"inputs": [],
					"name": "num1",
					"outputs": [
						{
							"internalType": "uint256",
							"name": "",
							"type": "uint256"
						}
					],
					"stateMutability": "view",
					"type": "function"
				},
				{
					"inputs": [],
					"name": "num2",
					"outputs": [
						{
							"internalType": "uint8",
							"name": "",
							"type": "uint8"
						}
					],
					"stateMutability": "view",
					"type": "function"
				},
				{
					"inputs": [],
					"name": "uncheck",
					"outputs": [],
					"stateMutability": "nonpayable",
					"type": "function"
				},
				{
					"inputs": [],
					"name": "valid",
					"outputs": [
						{
							"internalType": "bool",
							"name": "",
							"type": "bool"
						}
					],
					"stateMutability": "view",
					"type": "function"
				}
			],
			"devdoc": {
				"kind": "dev",
				"methods": {},
				"version": 1
			},
			"evm": {
				"assembly": "    /* \"contracts/day2.sol\":68:507  contract day2{... */\n  mstore(0x40, 0x80)\n    /* \"contracts/day2.sol\":106:109  127 */\n  0x7f\n    /* \"contracts/day2.sol\":88:109  int8 public num = 127 */\n  0x00\n  dup1\n  0x0100\n  exp\n  dup2\n  sload\n  dup2\n  0xff\n  mul\n  not\n  and\n  swap1\n  dup4\n  0x00\n  signextend\n  0xff\n  and\n  mul\n  or\n  swap1\n  sstore\n  pop\n    /* \"contracts/day2.sol\":226:229  256 */\n  0x0100\n    /* \"contracts/day2.sol\":206:229  uint256 public num1=256 */\n  0x01\n  sstore\n    /* \"contracts/day2.sol\":271:275  num1 */\n  sload(0x01)\n    /* \"contracts/day2.sol\":246:276  uint8 public num2= uint8(num1) */\n  0x02\n  exp(0x0100, 0x00)\n  dup2\n  sload\n  dup2\n  0xff\n  mul\n  not\n  and\n  swap1\n  dup4\n  0xff\n  and\n  mul\n  or\n  swap1\n  sstore\n  pop\n    /* \"contracts/day2.sol\":68:507  contract day2{... */\n  callvalue\n  dup1\n  iszero\n  tag_1\n  jumpi\n  0x00\n  dup1\n  revert\ntag_1:\n  pop\n  dataSize(sub_0)\n  dup1\n  dataOffset(sub_0)\n  0x00\n  codecopy\n  0x00\n  return\nstop\n\nsub_0: assembly {\n        /* \"contracts/day2.sol\":68:507  contract day2{... */\n      mstore(0x40, 0x80)\n      callvalue\n      dup1\n      iszero\n      tag_1\n      jumpi\n      0x00\n      dup1\n      revert\n    tag_1:\n      pop\n      jumpi(tag_2, lt(calldatasize, 0x04))\n      shr(0xe0, calldataload(0x00))\n      dup1\n      0x15d4266c\n      eq\n      tag_3\n      jumpi\n      dup1\n      0x2a2e1320\n      eq\n      tag_4\n      jumpi\n      dup1\n      0x3b9eac4b\n      eq\n      tag_5\n      jumpi\n      dup1\n      0x4e70b1dc\n      eq\n      tag_6\n      jumpi\n      dup1\n      0xb658f2a2\n      eq\n      tag_7\n      jumpi\n      dup1\n      0xc1991219\n      eq\n      tag_8\n      jumpi\n    tag_2:\n      0x00\n      dup1\n      revert\n        /* \"contracts/day2.sol\":246:276  uint8 public num2= uint8(num1) */\n    tag_3:\n      tag_9\n      tag_10\n      jump\t// in\n    tag_9:\n      mload(0x40)\n      tag_11\n      swap2\n      swap1\n      tag_12\n      jump\t// in\n    tag_11:\n      mload(0x40)\n      dup1\n      swap2\n      sub\n      swap1\n      return\n        /* \"contracts/day2.sol\":404:504  function isEven(uint a) public {... */\n    tag_4:\n      tag_13\n      0x04\n      dup1\n      calldatasize\n      sub\n      dup2\n      add\n      swap1\n      tag_14\n      swap2\n      swap1\n      tag_15\n      jump\t// in\n    tag_14:\n      tag_16\n      jump\t// in\n    tag_13:\n      stop\n        /* \"contracts/day2.sol\":206:229  uint256 public num1=256 */\n    tag_5:\n      tag_17\n      tag_18\n      jump\t// in\n    tag_17:\n      mload(0x40)\n      tag_19\n      swap2\n      swap1\n      tag_20\n      jump\t// in\n    tag_19:\n      mload(0x40)\n      dup1\n      swap2\n      sub\n      swap1\n      return\n        /* \"contracts/day2.sol\":88:109  int8 public num = 127 */\n    tag_6:\n      tag_21\n      tag_22\n      jump\t// in\n    tag_21:\n      mload(0x40)\n      tag_23\n      swap2\n      swap1\n      tag_24\n      jump\t// in\n    tag_23:\n      mload(0x40)\n      dup1\n      swap2\n      sub\n      swap1\n      return\n        /* \"contracts/day2.sol\":285:370  function uncheck() public{... */\n    tag_7:\n      tag_25\n      tag_26\n      jump\t// in\n    tag_25:\n      stop\n        /* \"contracts/day2.sol\":378:395  bool public valid */\n    tag_8:\n      tag_27\n      tag_28\n      jump\t// in\n    tag_27:\n      mload(0x40)\n      tag_29\n      swap2\n      swap1\n      tag_30\n      jump\t// in\n    tag_29:\n      mload(0x40)\n      dup1\n      swap2\n      sub\n      swap1\n      return\n        /* \"contracts/day2.sol\":246:276  uint8 public num2= uint8(num1) */\n    tag_10:\n      0x02\n      0x00\n      swap1\n      sload\n      swap1\n      0x0100\n      exp\n      swap1\n      div\n      0xff\n      and\n      dup2\n      jump\t// out\n        /* \"contracts/day2.sol\":404:504  function isEven(uint a) public {... */\n    tag_16:\n        /* \"contracts/day2.sol\":459:460  0 */\n      0x00\n        /* \"contracts/day2.sol\":456:457  2 */\n      0x02\n        /* \"contracts/day2.sol\":454:455  a */\n      dup3\n        /* \"contracts/day2.sol\":454:457  a%2 */\n      tag_32\n      swap2\n      swap1\n      tag_33\n      jump\t// in\n    tag_32:\n        /* \"contracts/day2.sol\":454:460  a%2==0 */\n      eq\n        /* \"contracts/day2.sol\":446:473  require(a%2==0, \"a is odd\") */\n      tag_34\n      jumpi\n      mload(0x40)\n      0x08c379a000000000000000000000000000000000000000000000000000000000\n      dup2\n      mstore\n      0x04\n      add\n      tag_35\n      swap1\n      tag_36\n      jump\t// in\n    tag_35:\n      mload(0x40)\n      dup1\n      swap2\n      sub\n      swap1\n      revert\n    tag_34:\n        /* \"contracts/day2.sol\":492:496  true */\n      0x01\n        /* \"contracts/day2.sol\":484:489  valid */\n      0x02\n      0x01\n        /* \"contracts/day2.sol\":484:496  valid = true */\n      0x0100\n      exp\n      dup2\n      sload\n      dup2\n      0xff\n      mul\n      not\n      and\n      swap1\n      dup4\n      iszero\n      iszero\n      mul\n      or\n      swap1\n      sstore\n      pop\n        /* \"contracts/day2.sol\":404:504  function isEven(uint a) public {... */\n      pop\n      jump\t// out\n        /* \"contracts/day2.sol\":206:229  uint256 public num1=256 */\n    tag_18:\n      sload(0x01)\n      dup2\n      jump\t// out\n        /* \"contracts/day2.sol\":88:109  int8 public num = 127 */\n    tag_22:\n      0x00\n      dup1\n      sload\n      swap1\n      0x0100\n      exp\n      swap1\n      div\n      0x00\n      signextend\n      dup2\n      jump\t// out\n        /* \"contracts/day2.sol\":285:370  function uncheck() public{... */\n    tag_26:\n        /* \"contracts/day2.sol\":345:349  num1 */\n      0x01\n      0x00\n        /* \"contracts/day2.sol\":345:351  num1++ */\n      dup2\n      sload\n      dup1\n      swap3\n      swap2\n      swap1\n      0x01\n      add\n      swap2\n      swap1\n      pop\n      sstore\n      pop\n        /* \"contracts/day2.sol\":285:370  function uncheck() public{... */\n      jump\t// out\n        /* \"contracts/day2.sol\":378:395  bool public valid */\n    tag_28:\n      0x02\n      0x01\n      swap1\n      sload\n      swap1\n      0x0100\n      exp\n      swap1\n      div\n      0xff\n      and\n      dup2\n      jump\t// out\n        /* \"#utility.yul\":7:93   */\n    tag_38:\n        /* \"#utility.yul\":42:49   */\n      0x00\n        /* \"#utility.yul\":82:86   */\n      0xff\n        /* \"#utility.yul\":75:80   */\n      dup3\n        /* \"#utility.yul\":71:87   */\n      and\n        /* \"#utility.yul\":60:87   */\n      swap1\n      pop\n        /* \"#utility.yul\":7:93   */\n      swap2\n      swap1\n      pop\n      jump\t// out\n        /* \"#utility.yul\":99:211   */\n    tag_39:\n        /* \"#utility.yul\":182:204   */\n      tag_58\n        /* \"#utility.yul\":198:203   */\n      dup2\n        /* \"#utility.yul\":182:204   */\n      tag_38\n      jump\t// in\n    tag_58:\n        /* \"#utility.yul\":177:180   */\n      dup3\n        /* \"#utility.yul\":170:205   */\n      mstore\n        /* \"#utility.yul\":99:211   */\n      pop\n      pop\n      jump\t// out\n        /* \"#utility.yul\":217:431   */\n    tag_12:\n        /* \"#utility.yul\":306:310   */\n      0x00\n        /* \"#utility.yul\":344:346   */\n      0x20\n        /* \"#utility.yul\":333:342   */\n      dup3\n        /* \"#utility.yul\":329:347   */\n      add\n        /* \"#utility.yul\":321:347   */\n      swap1\n      pop\n        /* \"#utility.yul\":357:424   */\n      tag_60\n        /* \"#utility.yul\":421:422   */\n      0x00\n        /* \"#utility.yul\":410:419   */\n      dup4\n        /* \"#utility.yul\":406:423   */\n      add\n        /* \"#utility.yul\":397:403   */\n      dup5\n        /* \"#utility.yul\":357:424   */\n      tag_39\n      jump\t// in\n    tag_60:\n        /* \"#utility.yul\":217:431   */\n      swap3\n      swap2\n      pop\n      pop\n      jump\t// out\n        /* \"#utility.yul\":518:635   */\n    tag_41:\n        /* \"#utility.yul\":627:628   */\n      0x00\n        /* \"#utility.yul\":624:625   */\n      dup1\n        /* \"#utility.yul\":617:629   */\n      revert\n        /* \"#utility.yul\":764:841   */\n    tag_43:\n        /* \"#utility.yul\":801:808   */\n      0x00\n        /* \"#utility.yul\":830:835   */\n      dup2\n        /* \"#utility.yul\":819:835   */\n      swap1\n      pop\n        /* \"#utility.yul\":764:841   */\n      swap2\n      swap1\n      pop\n      jump\t// out\n        /* \"#utility.yul\":847:969   */\n    tag_44:\n        /* \"#utility.yul\":920:944   */\n      tag_66\n        /* \"#utility.yul\":938:943   */\n      dup2\n        /* \"#utility.yul\":920:944   */\n      tag_43\n      jump\t// in\n    tag_66:\n        /* \"#utility.yul\":913:918   */\n      dup2\n        /* \"#utility.yul\":910:945   */\n      eq\n        /* \"#utility.yul\":900:963   */\n      tag_67\n      jumpi\n        /* \"#utility.yul\":959:960   */\n      0x00\n        /* \"#utility.yul\":956:957   */\n      dup1\n        /* \"#utility.yul\":949:961   */\n      revert\n        /* \"#utility.yul\":900:963   */\n    tag_67:\n        /* \"#utility.yul\":847:969   */\n      pop\n      jump\t// out\n        /* \"#utility.yul\":975:1114   */\n    tag_45:\n        /* \"#utility.yul\":1021:1026   */\n      0x00\n        /* \"#utility.yul\":1059:1065   */\n      dup2\n        /* \"#utility.yul\":1046:1066   */\n      calldataload\n        /* \"#utility.yul\":1037:1066   */\n      swap1\n      pop\n        /* \"#utility.yul\":1075:1108   */\n      tag_69\n        /* \"#utility.yul\":1102:1107   */\n      dup2\n        /* \"#utility.yul\":1075:1108   */\n      tag_44\n      jump\t// in\n    tag_69:\n        /* \"#utility.yul\":975:1114   */\n      swap3\n      swap2\n      pop\n      pop\n      jump\t// out\n        /* \"#utility.yul\":1120:1449   */\n    tag_15:\n        /* \"#utility.yul\":1179:1185   */\n      0x00\n        /* \"#utility.yul\":1228:1230   */\n      0x20\n        /* \"#utility.yul\":1216:1225   */\n      dup3\n        /* \"#utility.yul\":1207:1214   */\n      dup5\n        /* \"#utility.yul\":1203:1226   */\n      sub\n        /* \"#utility.yul\":1199:1231   */\n      slt\n        /* \"#utility.yul\":1196:1315   */\n      iszero\n      tag_71\n      jumpi\n        /* \"#utility.yul\":1234:1313   */\n      tag_72\n      tag_41\n      jump\t// in\n    tag_72:\n        /* \"#utility.yul\":1196:1315   */\n    tag_71:\n        /* \"#utility.yul\":1354:1355   */\n      0x00\n        /* \"#utility.yul\":1379:1432   */\n      tag_73\n        /* \"#utility.yul\":1424:1431   */\n      dup5\n        /* \"#utility.yul\":1415:1421   */\n      dup3\n        /* \"#utility.yul\":1404:1413   */\n      dup6\n        /* \"#utility.yul\":1400:1422   */\n      add\n        /* \"#utility.yul\":1379:1432   */\n      tag_45\n      jump\t// in\n    tag_73:\n        /* \"#utility.yul\":1369:1432   */\n      swap2\n      pop\n        /* \"#utility.yul\":1325:1442   */\n      pop\n        /* \"#utility.yul\":1120:1449   */\n      swap3\n      swap2\n      pop\n      pop\n      jump\t// out\n        /* \"#utility.yul\":1455:1573   */\n    tag_46:\n        /* \"#utility.yul\":1542:1566   */\n      tag_75\n        /* \"#utility.yul\":1560:1565   */\n      dup2\n        /* \"#utility.yul\":1542:1566   */\n      tag_43\n      jump\t// in\n    tag_75:\n        /* \"#utility.yul\":1537:1540   */\n      dup3\n        /* \"#utility.yul\":1530:1567   */\n      mstore\n        /* \"#utility.yul\":1455:1573   */\n      pop\n      pop\n      jump\t// out\n        /* \"#utility.yul\":1579:1801   */\n    tag_20:\n        /* \"#utility.yul\":1672:1676   */\n      0x00\n        /* \"#utility.yul\":1710:1712   */\n      0x20\n        /* \"#utility.yul\":1699:1708   */\n      dup3\n        /* \"#utility.yul\":1695:1713   */\n      add\n        /* \"#utility.yul\":1687:1713   */\n      swap1\n      pop\n        /* \"#utility.yul\":1723:1794   */\n      tag_77\n        /* \"#utility.yul\":1791:1792   */\n      0x00\n        /* \"#utility.yul\":1780:1789   */\n      dup4\n        /* \"#utility.yul\":1776:1793   */\n      add\n        /* \"#utility.yul\":1767:1773   */\n      dup5\n        /* \"#utility.yul\":1723:1794   */\n      tag_46\n      jump\t// in\n    tag_77:\n        /* \"#utility.yul\":1579:1801   */\n      swap3\n      swap2\n      pop\n      pop\n      jump\t// out\n        /* \"#utility.yul\":1807:1896   */\n    tag_47:\n        /* \"#utility.yul\":1841:1848   */\n      0x00\n        /* \"#utility.yul\":1884:1889   */\n      dup2\n        /* \"#utility.yul\":1881:1882   */\n      0x00\n        /* \"#utility.yul\":1870:1890   */\n      signextend\n        /* \"#utility.yul\":1859:1890   */\n      swap1\n      pop\n        /* \"#utility.yul\":1807:1896   */\n      swap2\n      swap1\n      pop\n      jump\t// out\n        /* \"#utility.yul\":1902:2011   */\n    tag_48:\n        /* \"#utility.yul\":1983:2004   */\n      tag_80\n        /* \"#utility.yul\":1998:2003   */\n      dup2\n        /* \"#utility.yul\":1983:2004   */\n      tag_47\n      jump\t// in\n    tag_80:\n        /* \"#utility.yul\":1978:1981   */\n      dup3\n        /* \"#utility.yul\":1971:2005   */\n      mstore\n        /* \"#utility.yul\":1902:2011   */\n      pop\n      pop\n      jump\t// out\n        /* \"#utility.yul\":2017:2227   */\n    tag_24:\n        /* \"#utility.yul\":2104:2108   */\n      0x00\n        /* \"#utility.yul\":2142:2144   */\n      0x20\n        /* \"#utility.yul\":2131:2140   */\n      dup3\n        /* \"#utility.yul\":2127:2145   */\n      add\n        /* \"#utility.yul\":2119:2145   */\n      swap1\n      pop\n        /* \"#utility.yul\":2155:2220   */\n      tag_82\n        /* \"#utility.yul\":2217:2218   */\n      0x00\n        /* \"#utility.yul\":2206:2215   */\n      dup4\n        /* \"#utility.yul\":2202:2219   */\n      add\n        /* \"#utility.yul\":2193:2199   */\n      dup5\n        /* \"#utility.yul\":2155:2220   */\n      tag_48\n      jump\t// in\n    tag_82:\n        /* \"#utility.yul\":2017:2227   */\n      swap3\n      swap2\n      pop\n      pop\n      jump\t// out\n        /* \"#utility.yul\":2233:2323   */\n    tag_49:\n        /* \"#utility.yul\":2267:2274   */\n      0x00\n        /* \"#utility.yul\":2310:2315   */\n      dup2\n        /* \"#utility.yul\":2303:2316   */\n      iszero\n        /* \"#utility.yul\":2296:2317   */\n      iszero\n        /* \"#utility.yul\":2285:2317   */\n      swap1\n      pop\n        /* \"#utility.yul\":2233:2323   */\n      swap2\n      swap1\n      pop\n      jump\t// out\n        /* \"#utility.yul\":2329:2438   */\n    tag_50:\n        /* \"#utility.yul\":2410:2431   */\n      tag_85\n        /* \"#utility.yul\":2425:2430   */\n      dup2\n        /* \"#utility.yul\":2410:2431   */\n      tag_49\n      jump\t// in\n    tag_85:\n        /* \"#utility.yul\":2405:2408   */\n      dup3\n        /* \"#utility.yul\":2398:2432   */\n      mstore\n        /* \"#utility.yul\":2329:2438   */\n      pop\n      pop\n      jump\t// out\n        /* \"#utility.yul\":2444:2654   */\n    tag_30:\n        /* \"#utility.yul\":2531:2535   */\n      0x00\n        /* \"#utility.yul\":2569:2571   */\n      0x20\n        /* \"#utility.yul\":2558:2567   */\n      dup3\n        /* \"#utility.yul\":2554:2572   */\n      add\n        /* \"#utility.yul\":2546:2572   */\n      swap1\n      pop\n        /* \"#utility.yul\":2582:2647   */\n      tag_87\n        /* \"#utility.yul\":2644:2645   */\n      0x00\n        /* \"#utility.yul\":2633:2642   */\n      dup4\n        /* \"#utility.yul\":2629:2646   */\n      add\n        /* \"#utility.yul\":2620:2626   */\n      dup5\n        /* \"#utility.yul\":2582:2647   */\n      tag_50\n      jump\t// in\n    tag_87:\n        /* \"#utility.yul\":2444:2654   */\n      swap3\n      swap2\n      pop\n      pop\n      jump\t// out\n        /* \"#utility.yul\":2660:2840   */\n    tag_51:\n        /* \"#utility.yul\":2708:2785   */\n      0x4e487b7100000000000000000000000000000000000000000000000000000000\n        /* \"#utility.yul\":2705:2706   */\n      0x00\n        /* \"#utility.yul\":2698:2786   */\n      mstore\n        /* \"#utility.yul\":2805:2809   */\n      0x12\n        /* \"#utility.yul\":2802:2803   */\n      0x04\n        /* \"#utility.yul\":2795:2810   */\n      mstore\n        /* \"#utility.yul\":2829:2833   */\n      0x24\n        /* \"#utility.yul\":2826:2827   */\n      0x00\n        /* \"#utility.yul\":2819:2834   */\n      revert\n        /* \"#utility.yul\":2846:3022   */\n    tag_33:\n        /* \"#utility.yul\":2878:2879   */\n      0x00\n        /* \"#utility.yul\":2895:2915   */\n      tag_90\n        /* \"#utility.yul\":2913:2914   */\n      dup3\n        /* \"#utility.yul\":2895:2915   */\n      tag_43\n      jump\t// in\n    tag_90:\n        /* \"#utility.yul\":2890:2915   */\n      swap2\n      pop\n        /* \"#utility.yul\":2929:2949   */\n      tag_91\n        /* \"#utility.yul\":2947:2948   */\n      dup4\n        /* \"#utility.yul\":2929:2949   */\n      tag_43\n      jump\t// in\n    tag_91:\n        /* \"#utility.yul\":2924:2949   */\n      swap3\n      pop\n        /* \"#utility.yul\":2968:2969   */\n      dup3\n        /* \"#utility.yul\":2958:2993   */\n      tag_92\n      jumpi\n        /* \"#utility.yul\":2973:2991   */\n      tag_93\n      tag_51\n      jump\t// in\n    tag_93:\n        /* \"#utility.yul\":2958:2993   */\n    tag_92:\n        /* \"#utility.yul\":3014:3015   */\n      dup3\n        /* \"#utility.yul\":3011:3012   */\n      dup3\n        /* \"#utility.yul\":3007:3016   */\n      mod\n        /* \"#utility.yul\":3002:3016   */\n      swap1\n      pop\n        /* \"#utility.yul\":2846:3022   */\n      swap3\n      swap2\n      pop\n      pop\n      jump\t// out\n        /* \"#utility.yul\":3028:3197   */\n    tag_52:\n        /* \"#utility.yul\":3112:3123   */\n      0x00\n        /* \"#utility.yul\":3146:3152   */\n      dup3\n        /* \"#utility.yul\":3141:3144   */\n      dup3\n        /* \"#utility.yul\":3134:3153   */\n      mstore\n        /* \"#utility.yul\":3186:3190   */\n      0x20\n        /* \"#utility.yul\":3181:3184   */\n      dup3\n        /* \"#utility.yul\":3177:3191   */\n      add\n        /* \"#utility.yul\":3162:3191   */\n      swap1\n      pop\n        /* \"#utility.yul\":3028:3197   */\n      swap3\n      swap2\n      pop\n      pop\n      jump\t// out\n        /* \"#utility.yul\":3203:3361   */\n    tag_53:\n        /* \"#utility.yul\":3343:3353   */\n      0x61206973206f6464000000000000000000000000000000000000000000000000\n        /* \"#utility.yul\":3339:3340   */\n      0x00\n        /* \"#utility.yul\":3331:3337   */\n      dup3\n        /* \"#utility.yul\":3327:3341   */\n      add\n        /* \"#utility.yul\":3320:3354   */\n      mstore\n        /* \"#utility.yul\":3203:3361   */\n      pop\n      jump\t// out\n        /* \"#utility.yul\":3367:3732   */\n    tag_54:\n        /* \"#utility.yul\":3509:3512   */\n      0x00\n        /* \"#utility.yul\":3530:3596   */\n      tag_97\n        /* \"#utility.yul\":3594:3595   */\n      0x08\n        /* \"#utility.yul\":3589:3592   */\n      dup4\n        /* \"#utility.yul\":3530:3596   */\n      tag_52\n      jump\t// in\n    tag_97:\n        /* \"#utility.yul\":3523:3596   */\n      swap2\n      pop\n        /* \"#utility.yul\":3605:3698   */\n      tag_98\n        /* \"#utility.yul\":3694:3697   */\n      dup3\n        /* \"#utility.yul\":3605:3698   */\n      tag_53\n      jump\t// in\n    tag_98:\n        /* \"#utility.yul\":3723:3725   */\n      0x20\n        /* \"#utility.yul\":3718:3721   */\n      dup3\n        /* \"#utility.yul\":3714:3726   */\n      add\n        /* \"#utility.yul\":3707:3726   */\n      swap1\n      pop\n        /* \"#utility.yul\":3367:3732   */\n      swap2\n      swap1\n      pop\n      jump\t// out\n        /* \"#utility.yul\":3738:4157   */\n    tag_36:\n        /* \"#utility.yul\":3904:3908   */\n      0x00\n        /* \"#utility.yul\":3942:3944   */\n      0x20\n        /* \"#utility.yul\":3931:3940   */\n      dup3\n        /* \"#utility.yul\":3927:3945   */\n      add\n        /* \"#utility.yul\":3919:3945   */\n      swap1\n      pop\n        /* \"#utility.yul\":3991:4000   */\n      dup2\n        /* \"#utility.yul\":3985:3989   */\n      dup2\n        /* \"#utility.yul\":3981:4001   */\n      sub\n        /* \"#utility.yul\":3977:3978   */\n      0x00\n        /* \"#utility.yul\":3966:3975   */\n      dup4\n        /* \"#utility.yul\":3962:3979   */\n      add\n        /* \"#utility.yul\":3955:4002   */\n      mstore\n        /* \"#utility.yul\":4019:4150   */\n      tag_100\n        /* \"#utility.yul\":4145:4149   */\n      dup2\n        /* \"#utility.yul\":4019:4150   */\n      tag_54\n      jump\t// in\n    tag_100:\n        /* \"#utility.yul\":4011:4150   */\n      swap1\n      pop\n        /* \"#utility.yul\":3738:4157   */\n      swap2\n      swap1\n      pop\n      jump\t// out\n\n    auxdata: 0xa2646970667358221220386ba9b4f8bcb8dc31eb88db4f3e7a2c3378155d1e6e746804f587e9cfc106fc64736f6c63430008180033\n}\n",
				"bytecode": {
					"linkReferences": {},
					"object": "6080604052607f5f806101000a81548160ff02191690835f0b60ff16021790555061010060015560015460025f6101000a81548160ff021916908360ff16021790555034801561004d575f80fd5b506103ea8061005b5f395ff3fe608060405234801561000f575f80fd5b5060043610610060575f3560e01c806315d4266c146100645780632a2e1320146100825780633b9eac4b1461009e5780634e70b1dc146100bc578063b658f2a2146100da578063c1991219146100e4575b5f80fd5b61006c610102565b60405161007991906101d6565b60405180910390f35b61009c60048036038101906100979190610226565b610114565b005b6100a6610180565b6040516100b39190610260565b60405180910390f35b6100c4610186565b6040516100d19190610293565b60405180910390f35b6100e2610195565b005b6100ec6101a8565b6040516100f991906102c6565b60405180910390f35b60025f9054906101000a900460ff1681565b5f600282610122919061030c565b14610162576040517f08c379a000000000000000000000000000000000000000000000000000000000815260040161015990610396565b60405180910390fd5b6001600260016101000a81548160ff02191690831515021790555050565b60015481565b5f8054906101000a90045f0b81565b60015f8154809291906001019190505550565b600260019054906101000a900460ff1681565b5f60ff82169050919050565b6101d0816101bb565b82525050565b5f6020820190506101e95f8301846101c7565b92915050565b5f80fd5b5f819050919050565b610205816101f3565b811461020f575f80fd5b50565b5f81359050610220816101fc565b92915050565b5f6020828403121561023b5761023a6101ef565b5b5f61024884828501610212565b91505092915050565b61025a816101f3565b82525050565b5f6020820190506102735f830184610251565b92915050565b5f815f0b9050919050565b61028d81610279565b82525050565b5f6020820190506102a65f830184610284565b92915050565b5f8115159050919050565b6102c0816102ac565b82525050565b5f6020820190506102d95f8301846102b7565b92915050565b7f4e487b71000000000000000000000000000000000000000000000000000000005f52601260045260245ffd5b5f610316826101f3565b9150610321836101f3565b925082610331576103306102df565b5b828206905092915050565b5f82825260208201905092915050565b7f61206973206f64640000000000000000000000000000000000000000000000005f82015250565b5f61038060088361033c565b915061038b8261034c565b602082019050919050565b5f6020820190508181035f8301526103ad81610374565b905091905056fea2646970667358221220386ba9b4f8bcb8dc31eb88db4f3e7a2c3378155d1e6e746804f587e9cfc106fc64736f6c63430008180033",
					"opcodes": "PUSH1 0x80 PUSH1 0x40 MSTORE PUSH1 0x7F PUSH0 DUP1 PUSH2 0x100 EXP DUP2 SLOAD DUP2 PUSH1 0xFF MUL NOT AND SWAP1 DUP4 PUSH0 SIGNEXTEND PUSH1 0xFF AND MUL OR SWAP1 SSTORE POP PUSH2 0x100 PUSH1 0x1 SSTORE PUSH1 0x1 SLOAD PUSH1 0x2 PUSH0 PUSH2 0x100 EXP DUP2 SLOAD DUP2 PUSH1 0xFF MUL NOT AND SWAP1 DUP4 PUSH1 0xFF AND MUL OR SWAP1 SSTORE POP CALLVALUE DUP1 ISZERO PUSH2 0x4D JUMPI PUSH0 DUP1 REVERT JUMPDEST POP PUSH2 0x3EA DUP1 PUSH2 0x5B PUSH0 CODECOPY PUSH0 RETURN INVALID PUSH1 0x80 PUSH1 0x40 MSTORE CALLVALUE DUP1 ISZERO PUSH2 0xF JUMPI PUSH0 DUP1 REVERT JUMPDEST POP PUSH1 0x4 CALLDATASIZE LT PUSH2 0x60 JUMPI PUSH0 CALLDATALOAD PUSH1 0xE0 SHR DUP1 PUSH4 0x15D4266C EQ PUSH2 0x64 JUMPI DUP1 PUSH4 0x2A2E1320 EQ PUSH2 0x82 JUMPI DUP1 PUSH4 0x3B9EAC4B EQ PUSH2 0x9E JUMPI DUP1 PUSH4 0x4E70B1DC EQ PUSH2 0xBC JUMPI DUP1 PUSH4 0xB658F2A2 EQ PUSH2 0xDA JUMPI DUP1 PUSH4 0xC1991219 EQ PUSH2 0xE4 JUMPI JUMPDEST PUSH0 DUP1 REVERT JUMPDEST PUSH2 0x6C PUSH2 0x102 JUMP JUMPDEST PUSH1 0x40 MLOAD PUSH2 0x79 SWAP2 SWAP1 PUSH2 0x1D6 JUMP JUMPDEST PUSH1 0x40 MLOAD DUP1 SWAP2 SUB SWAP1 RETURN JUMPDEST PUSH2 0x9C PUSH1 0x4 DUP1 CALLDATASIZE SUB DUP2 ADD SWAP1 PUSH2 0x97 SWAP2 SWAP1 PUSH2 0x226 JUMP JUMPDEST PUSH2 0x114 JUMP JUMPDEST STOP JUMPDEST PUSH2 0xA6 PUSH2 0x180 JUMP JUMPDEST PUSH1 0x40 MLOAD PUSH2 0xB3 SWAP2 SWAP1 PUSH2 0x260 JUMP JUMPDEST PUSH1 0x40 MLOAD DUP1 SWAP2 SUB SWAP1 RETURN JUMPDEST PUSH2 0xC4 PUSH2 0x186 JUMP JUMPDEST PUSH1 0x40 MLOAD PUSH2 0xD1 SWAP2 SWAP1 PUSH2 0x293 JUMP JUMPDEST PUSH1 0x40 MLOAD DUP1 SWAP2 SUB SWAP1 RETURN JUMPDEST PUSH2 0xE2 PUSH2 0x195 JUMP JUMPDEST STOP JUMPDEST PUSH2 0xEC PUSH2 0x1A8 JUMP JUMPDEST PUSH1 0x40 MLOAD PUSH2 0xF9 SWAP2 SWAP1 PUSH2 0x2C6 JUMP JUMPDEST PUSH1 0x40 MLOAD DUP1 SWAP2 SUB SWAP1 RETURN JUMPDEST PUSH1 0x2 PUSH0 SWAP1 SLOAD SWAP1 PUSH2 0x100 EXP SWAP1 DIV PUSH1 0xFF AND DUP2 JUMP JUMPDEST PUSH0 PUSH1 0x2 DUP3 PUSH2 0x122 SWAP2 SWAP1 PUSH2 0x30C JUMP JUMPDEST EQ PUSH2 0x162 JUMPI PUSH1 0x40 MLOAD PUSH32 0x8C379A000000000000000000000000000000000000000000000000000000000 DUP2 MSTORE PUSH1 0x4 ADD PUSH2 0x159 SWAP1 PUSH2 0x396 JUMP JUMPDEST PUSH1 0x40 MLOAD DUP1 SWAP2 SUB SWAP1 REVERT JUMPDEST PUSH1 0x1 PUSH1 0x2 PUSH1 0x1 PUSH2 0x100 EXP DUP2 SLOAD DUP2 PUSH1 0xFF MUL NOT AND SWAP1 DUP4 ISZERO ISZERO MUL OR SWAP1 SSTORE POP POP JUMP JUMPDEST PUSH1 0x1 SLOAD DUP2 JUMP JUMPDEST PUSH0 DUP1 SLOAD SWAP1 PUSH2 0x100 EXP SWAP1 DIV PUSH0 SIGNEXTEND DUP2 JUMP JUMPDEST PUSH1 0x1 PUSH0 DUP2 SLOAD DUP1 SWAP3 SWAP2 SWAP1 PUSH1 0x1 ADD SWAP2 SWAP1 POP SSTORE POP JUMP JUMPDEST PUSH1 0x2 PUSH1 0x1 SWAP1 SLOAD SWAP1 PUSH2 0x100 EXP SWAP1 DIV PUSH1 0xFF AND DUP2 JUMP JUMPDEST PUSH0 PUSH1 0xFF DUP3 AND SWAP1 POP SWAP2 SWAP1 POP JUMP JUMPDEST PUSH2 0x1D0 DUP2 PUSH2 0x1BB JUMP JUMPDEST DUP3 MSTORE POP POP JUMP JUMPDEST PUSH0 PUSH1 0x20 DUP3 ADD SWAP1 POP PUSH2 0x1E9 PUSH0 DUP4 ADD DUP5 PUSH2 0x1C7 JUMP JUMPDEST SWAP3 SWAP2 POP POP JUMP JUMPDEST PUSH0 DUP1 REVERT JUMPDEST PUSH0 DUP2 SWAP1 POP SWAP2 SWAP1 POP JUMP JUMPDEST PUSH2 0x205 DUP2 PUSH2 0x1F3 JUMP JUMPDEST DUP2 EQ PUSH2 0x20F JUMPI PUSH0 DUP1 REVERT JUMPDEST POP JUMP JUMPDEST PUSH0 DUP2 CALLDATALOAD SWAP1 POP PUSH2 0x220 DUP2 PUSH2 0x1FC JUMP JUMPDEST SWAP3 SWAP2 POP POP JUMP JUMPDEST PUSH0 PUSH1 0x20 DUP3 DUP5 SUB SLT ISZERO PUSH2 0x23B JUMPI PUSH2 0x23A PUSH2 0x1EF JUMP JUMPDEST JUMPDEST PUSH0 PUSH2 0x248 DUP5 DUP3 DUP6 ADD PUSH2 0x212 JUMP JUMPDEST SWAP2 POP POP SWAP3 SWAP2 POP POP JUMP JUMPDEST PUSH2 0x25A DUP2 PUSH2 0x1F3 JUMP JUMPDEST DUP3 MSTORE POP POP JUMP JUMPDEST PUSH0 PUSH1 0x20 DUP3 ADD SWAP1 POP PUSH2 0x273 PUSH0 DUP4 ADD DUP5 PUSH2 0x251 JUMP JUMPDEST SWAP3 SWAP2 POP POP JUMP JUMPDEST PUSH0 DUP2 PUSH0 SIGNEXTEND SWAP1 POP SWAP2 SWAP1 POP JUMP JUMPDEST PUSH2 0x28D DUP2 PUSH2 0x279 JUMP JUMPDEST DUP3 MSTORE POP POP JUMP JUMPDEST PUSH0 PUSH1 0x20 DUP3 ADD SWAP1 POP PUSH2 0x2A6 PUSH0 DUP4 ADD DUP5 PUSH2 0x284 JUMP JUMPDEST SWAP3 SWAP2 POP POP JUMP JUMPDEST PUSH0 DUP2 ISZERO ISZERO SWAP1 POP SWAP2 SWAP1 POP JUMP JUMPDEST PUSH2 0x2C0 DUP2 PUSH2 0x2AC JUMP JUMPDEST DUP3 MSTORE POP POP JUMP JUMPDEST PUSH0 PUSH1 0x20 DUP3 ADD SWAP1 POP PUSH2 0x2D9 PUSH0 DUP4 ADD DUP5 PUSH2 0x2B7 JUMP JUMPDEST SWAP3 SWAP2 POP POP JUMP JUMPDEST PUSH32 0x4E487B7100000000000000000000000000000000000000000000000000000000 PUSH0 MSTORE PUSH1 0x12 PUSH1 0x4 MSTORE PUSH1 0x24 PUSH0 REVERT JUMPDEST PUSH0 PUSH2 0x316 DUP3 PUSH2 0x1F3 JUMP JUMPDEST SWAP2 POP PUSH2 0x321 DUP4 PUSH2 0x1F3 JUMP JUMPDEST SWAP3 POP DUP3 PUSH2 0x331 JUMPI PUSH2 0x330 PUSH2 0x2DF JUMP JUMPDEST JUMPDEST DUP3 DUP3 MOD SWAP1 POP SWAP3 SWAP2 POP POP JUMP JUMPDEST PUSH0 DUP3 DUP3 MSTORE PUSH1 0x20 DUP3 ADD SWAP1 POP SWAP3 SWAP2 POP POP JUMP JUMPDEST PUSH32 0x61206973206F6464000000000000000000000000000000000000000000000000 PUSH0 DUP3 ADD MSTORE POP JUMP JUMPDEST PUSH0 PUSH2 0x380 PUSH1 0x8 DUP4 PUSH2 0x33C JUMP JUMPDEST SWAP2 POP PUSH2 0x38B DUP3 PUSH2 0x34C JUMP JUMPDEST PUSH1 0x20 DUP3 ADD SWAP1 POP SWAP2 SWAP1 POP JUMP JUMPDEST PUSH0 PUSH1 0x20 DUP3 ADD SWAP1 POP DUP2 DUP2 SUB PUSH0 DUP4 ADD MSTORE PUSH2 0x3AD DUP2 PUSH2 0x374 JUMP JUMPDEST SWAP1 POP SWAP2 SWAP1 POP JUMP INVALID LOG2 PUSH5 0x6970667358 0x22 SLT KECCAK256 CODESIZE PUSH12 0xA9B4F8BCB8DC31EB88DB4F3E PUSH27 0x2C3378155D1E6E746804F587E9CFC106FC64736F6C634300081800 CALLER "
				},
				"gasEstimates": {
					"creation": {
						"codeDepositCost": "200400",
						"executionCost": "72988",
						"totalCost": "273388"
					},
					"external": {
						"isEven(uint256)": "infinite",
						"num()": "2509",
						"num1()": "2447",
						"num2()": "2444",
						"uncheck()": "24445",
						"valid()": "2605"
					}
				},
				"methodIdentifiers": {
					"isEven(uint256)": "2a2e1320",
					"num()": "4e70b1dc",
					"num1()": "3b9eac4b",
					"num2()": "15d4266c",
					"uncheck()": "b658f2a2",
					"valid()": "c1991219"
				}
			},
			"storageLayout": {
				"storage": [
					{
						"astId": 4,
						"contract": "contracts/day2.sol:day2",
						"label": "num",
						"offset": 0,
						"slot": "0",
						"type": "t_int8"
					},
					{
						"astId": 7,
						"contract": "contracts/day2.sol:day2",
						"label": "num1",
						"offset": 0,
						"slot": "1",
						"type": "t_uint256"
					},
					{
						"astId": 13,
						"contract": "contracts/day2.sol:day2",
						"label": "num2",
						"offset": 0,
						"slot": "2",
						"type": "t_uint8"
					},
					{
						"astId": 23,
						"contract": "contracts/day2.sol:day2",
						"label": "valid",
						"offset": 1,
						"slot": "2",
						"type": "t_bool"
					}
				],
				"types": {
					"t_bool": {
						"encoding": "inplace",
						"label": "bool",
						"numberOfBytes": "1"
					},
					"t_int8": {
						"encoding": "inplace",
						"label": "int8",
						"numberOfBytes": "1"
					},
					"t_uint256": {
						"encoding": "inplace",
						"label": "uint256",
						"numberOfBytes": "32"
					},
					"t_uint8": {
						"encoding": "inplace",
						"label": "uint8",
						"numberOfBytes": "1"
					}
				}
			},
			"userdoc": {
				"kind": "user",
				"methods": {},
				"version": 1
			}
		}
	}
}