{
	"data": {
		"bytecode": {
			"linkReferences": {},
			"object": "608060405260055f5560096001556003600255600a600355348015610022575f80fd5b5060645f8190555061038c806100375f395ff3fe608060405234801561000f575f80fd5b5060043610610060575f3560e01c8063011285da146100645780633fa4f245146100825780634e70b1dc146100a0578063e0068052146100be578063e3ec0251146100ee578063ec5971281461010c575b5f80fd5b61006c610116565b60405161007991906101a0565b60405180910390f35b61008a61012c565b60405161009791906101a0565b60405180910390f35b6100a8610132565b6040516100b591906101a0565b60405180910390f35b6100d860048036038101906100d391906101e7565b610137565b6040516100e591906101a0565b60405180910390f35b6100f661014c565b60405161010391906101a0565b60405180910390f35b61011461016a565b005b5f6002546001546101279190610252565b905090565b60035481565b5f5481565b5f818361014491906102c0565b905092915050565b5f80600a90505f60149050818161016391906102f0565b9250505090565b5f600a90505f601490505f81836101819190610323565b9050505050565b5f819050919050565b61019a81610188565b82525050565b5f6020820190506101b35f830184610191565b92915050565b5f80fd5b6101c681610188565b81146101d0575f80fd5b50565b5f813590506101e1816101bd565b92915050565b5f80604083850312156101fd576101fc6101b9565b5b5f61020a858286016101d3565b925050602061021b858286016101d3565b9150509250929050565b7f4e487b71000000000000000000000000000000000000000000000000000000005f52601160045260245ffd5b5f61025c82610188565b915061026783610188565b925082820261027581610188565b9150828204841483151761028c5761028b610225565b5b5092915050565b7f4e487b71000000000000000000000000000000000000000000000000000000005f52601260045260245ffd5b5f6102ca82610188565b91506102d583610188565b9250826102e5576102e4610293565b5b828204905092915050565b5f6102fa82610188565b915061030583610188565b925082820390508181111561031d5761031c610225565b5b92915050565b5f61032d82610188565b915061033883610188565b92508282019050808211156103505761034f610225565b5b9291505056fea26469706673582212202906de500b7e21e87a5b771e5376ff985c1c0f4d581c8bdf140cf9d54cf5df0b64736f6c63430008180033",
			"opcodes": "PUSH1 0x80 PUSH1 0x40 MSTORE PUSH1 0x5 PUSH0 SSTORE PUSH1 0x9 PUSH1 0x1 SSTORE PUSH1 0x3 PUSH1 0x2 SSTORE PUSH1 0xA PUSH1 0x3 SSTORE CALLVALUE DUP1 ISZERO PUSH2 0x22 JUMPI PUSH0 DUP1 REVERT JUMPDEST POP PUSH1 0x64 PUSH0 DUP2 SWAP1 SSTORE POP PUSH2 0x38C DUP1 PUSH2 0x37 PUSH0 CODECOPY PUSH0 RETURN INVALID PUSH1 0x80 PUSH1 0x40 MSTORE CALLVALUE DUP1 ISZERO PUSH2 0xF JUMPI PUSH0 DUP1 REVERT JUMPDEST POP PUSH1 0x4 CALLDATASIZE LT PUSH2 0x60 JUMPI PUSH0 CALLDATALOAD PUSH1 0xE0 SHR DUP1 PUSH4 0x11285DA EQ PUSH2 0x64 JUMPI DUP1 PUSH4 0x3FA4F245 EQ PUSH2 0x82 JUMPI DUP1 PUSH4 0x4E70B1DC EQ PUSH2 0xA0 JUMPI DUP1 PUSH4 0xE0068052 EQ PUSH2 0xBE JUMPI DUP1 PUSH4 0xE3EC0251 EQ PUSH2 0xEE JUMPI DUP1 PUSH4 0xEC597128 EQ PUSH2 0x10C JUMPI JUMPDEST PUSH0 DUP1 REVERT JUMPDEST PUSH2 0x6C PUSH2 0x116 JUMP JUMPDEST PUSH1 0x40 MLOAD PUSH2 0x79 SWAP2 SWAP1 PUSH2 0x1A0 JUMP JUMPDEST PUSH1 0x40 MLOAD DUP1 SWAP2 SUB SWAP1 RETURN JUMPDEST PUSH2 0x8A PUSH2 0x12C JUMP JUMPDEST PUSH1 0x40 MLOAD PUSH2 0x97 SWAP2 SWAP1 PUSH2 0x1A0 JUMP JUMPDEST PUSH1 0x40 MLOAD DUP1 SWAP2 SUB SWAP1 RETURN JUMPDEST PUSH2 0xA8 PUSH2 0x132 JUMP JUMPDEST PUSH1 0x40 MLOAD PUSH2 0xB5 SWAP2 SWAP1 PUSH2 0x1A0 JUMP JUMPDEST PUSH1 0x40 MLOAD DUP1 SWAP2 SUB SWAP1 RETURN JUMPDEST PUSH2 0xD8 PUSH1 0x4 DUP1 CALLDATASIZE SUB DUP2 ADD SWAP1 PUSH2 0xD3 SWAP2 SWAP1 PUSH2 0x1E7 JUMP JUMPDEST PUSH2 0x137 JUMP JUMPDEST PUSH1 0x40 MLOAD PUSH2 0xE5 SWAP2 SWAP1 PUSH2 0x1A0 JUMP JUMPDEST PUSH1 0x40 MLOAD DUP1 SWAP2 SUB SWAP1 RETURN JUMPDEST PUSH2 0xF6 PUSH2 0x14C JUMP JUMPDEST PUSH1 0x40 MLOAD PUSH2 0x103 SWAP2 SWAP1 PUSH2 0x1A0 JUMP JUMPDEST PUSH1 0x40 MLOAD DUP1 SWAP2 SUB SWAP1 RETURN JUMPDEST PUSH2 0x114 PUSH2 0x16A JUMP JUMPDEST STOP JUMPDEST PUSH0 PUSH1 0x2 SLOAD PUSH1 0x1 SLOAD PUSH2 0x127 SWAP2 SWAP1 PUSH2 0x252 JUMP JUMPDEST SWAP1 POP SWAP1 JUMP JUMPDEST PUSH1 0x3 SLOAD DUP2 JUMP JUMPDEST PUSH0 SLOAD DUP2 JUMP JUMPDEST PUSH0 DUP2 DUP4 PUSH2 0x144 SWAP2 SWAP1 PUSH2 0x2C0 JUMP JUMPDEST SWAP1 POP SWAP3 SWAP2 POP POP JUMP JUMPDEST PUSH0 DUP1 PUSH1 0xA SWAP1 POP PUSH0 PUSH1 0x14 SWAP1 POP DUP2 DUP2 PUSH2 0x163 SWAP2 SWAP1 PUSH2 0x2F0 JUMP JUMPDEST SWAP3 POP POP POP SWAP1 JUMP JUMPDEST PUSH0 PUSH1 0xA SWAP1 POP PUSH0 PUSH1 0x14 SWAP1 POP PUSH0 DUP2 DUP4 PUSH2 0x181 SWAP2 SWAP1 PUSH2 0x323 JUMP JUMPDEST SWAP1 POP POP POP POP JUMP JUMPDEST PUSH0 DUP2 SWAP1 POP SWAP2 SWAP1 POP JUMP JUMPDEST PUSH2 0x19A DUP2 PUSH2 0x188 JUMP JUMPDEST DUP3 MSTORE POP POP JUMP JUMPDEST PUSH0 PUSH1 0x20 DUP3 ADD SWAP1 POP PUSH2 0x1B3 PUSH0 DUP4 ADD DUP5 PUSH2 0x191 JUMP JUMPDEST SWAP3 SWAP2 POP POP JUMP JUMPDEST PUSH0 DUP1 REVERT JUMPDEST PUSH2 0x1C6 DUP2 PUSH2 0x188 JUMP JUMPDEST DUP2 EQ PUSH2 0x1D0 JUMPI PUSH0 DUP1 REVERT JUMPDEST POP JUMP JUMPDEST PUSH0 DUP2 CALLDATALOAD SWAP1 POP PUSH2 0x1E1 DUP2 PUSH2 0x1BD JUMP JUMPDEST SWAP3 SWAP2 POP POP JUMP JUMPDEST PUSH0 DUP1 PUSH1 0x40 DUP4 DUP6 SUB SLT ISZERO PUSH2 0x1FD JUMPI PUSH2 0x1FC PUSH2 0x1B9 JUMP JUMPDEST JUMPDEST PUSH0 PUSH2 0x20A DUP6 DUP3 DUP7 ADD PUSH2 0x1D3 JUMP JUMPDEST SWAP3 POP POP PUSH1 0x20 PUSH2 0x21B DUP6 DUP3 DUP7 ADD PUSH2 0x1D3 JUMP JUMPDEST SWAP2 POP POP SWAP3 POP SWAP3 SWAP1 POP JUMP JUMPDEST PUSH32 0x4E487B7100000000000000000000000000000000000000000000000000000000 PUSH0 MSTORE PUSH1 0x11 PUSH1 0x4 MSTORE PUSH1 0x24 PUSH0 REVERT JUMPDEST PUSH0 PUSH2 0x25C DUP3 PUSH2 0x188 JUMP JUMPDEST SWAP2 POP PUSH2 0x267 DUP4 PUSH2 0x188 JUMP JUMPDEST SWAP3 POP DUP3 DUP3 MUL PUSH2 0x275 DUP2 PUSH2 0x188 JUMP JUMPDEST SWAP2 POP DUP3 DUP3 DIV DUP5 EQ DUP4 ISZERO OR PUSH2 0x28C JUMPI PUSH2 0x28B PUSH2 0x225 JUMP JUMPDEST JUMPDEST POP SWAP3 SWAP2 POP POP JUMP JUMPDEST PUSH32 0x4E487B7100000000000000000000000000000000000000000000000000000000 PUSH0 MSTORE PUSH1 0x12 PUSH1 0x4 MSTORE PUSH1 0x24 PUSH0 REVERT JUMPDEST PUSH0 PUSH2 0x2CA DUP3 PUSH2 0x188 JUMP JUMPDEST SWAP2 POP PUSH2 0x2D5 DUP4 PUSH2 0x188 JUMP JUMPDEST SWAP3 POP DUP3 PUSH2 0x2E5 JUMPI PUSH2 0x2E4 PUSH2 0x293 JUMP JUMPDEST JUMPDEST DUP3 DUP3 DIV SWAP1 POP SWAP3 SWAP2 POP POP JUMP JUMPDEST PUSH0 PUSH2 0x2FA DUP3 PUSH2 0x188 JUMP JUMPDEST SWAP2 POP PUSH2 0x305 DUP4 PUSH2 0x188 JUMP JUMPDEST SWAP3 POP DUP3 DUP3 SUB SWAP1 POP DUP2 DUP2 GT ISZERO PUSH2 0x31D JUMPI PUSH2 0x31C PUSH2 0x225 JUMP JUMPDEST JUMPDEST SWAP3 SWAP2 POP POP JUMP JUMPDEST PUSH0 PUSH2 0x32D DUP3 PUSH2 0x188 JUMP JUMPDEST SWAP2 POP PUSH2 0x338 DUP4 PUSH2 0x188 JUMP JUMPDEST SWAP3 POP DUP3 DUP3 ADD SWAP1 POP DUP1 DUP3 GT ISZERO PUSH2 0x350 JUMPI PUSH2 0x34F PUSH2 0x225 JUMP JUMPDEST JUMPDEST SWAP3 SWAP2 POP POP JUMP INVALID LOG2 PUSH5 0x6970667358 0x22 SLT KECCAK256 0x29 MOD 0xDE POP SIGNEXTEND PUSH31 0x21E87A5B771E5376FF985C1C0F4D581C8BDF140CF9D54CF5DF0B64736F6C63 NUMBER STOP ADDMOD XOR STOP CALLER "
		},
		"gasEstimates": {
			"creation": {
				"codeDepositCost": "181600",
				"executionCost": "93660",
				"totalCost": "275260"
			},
			"external": {
				"addition()": "infinite",
				"division(uint256,uint256)": "infinite",
				"multiplication()": "infinite",
				"num()": "2446",
				"subtraction()": "infinite",
				"value()": "2425"
			}
		},
		"methodIdentifiers": {
			"addition()": "ec597128",
			"division(uint256,uint256)": "e0068052",
			"multiplication()": "011285da",
			"num()": "4e70b1dc",
			"subtraction()": "e3ec0251",
			"value()": "3fa4f245"
		}
	},
	"abi": [
		{
			"inputs": [],
			"stateMutability": "nonpayable",
			"type": "constructor"
		},
		{
			"inputs": [],
			"name": "addition",
			"outputs": [],
			"stateMutability": "pure",
			"type": "function"
		},
		{
			"inputs": [
				{
					"internalType": "uint256",
					"name": "a",
					"type": "uint256"
				},
				{
					"internalType": "uint256",
					"name": "b",
					"type": "uint256"
				}
			],
			"name": "division",
			"outputs": [
				{
					"internalType": "uint256",
					"name": "",
					"type": "uint256"
				}
			],
			"stateMutability": "pure",
			"type": "function"
		},
		{
			"inputs": [],
			"name": "multiplication",
			"outputs": [
				{
					"internalType": "uint256",
					"name": "",
					"type": "uint256"
				}
			],
			"stateMutability": "view",
			"type": "function"
		},
		{
			"inputs": [],
			"name": "num",
			"outputs": [
				{
					"internalType": "uint256",
					"name": "",
					"type": "uint256"
				}
			],
			"stateMutability": "view",
			"type": "function"
		},
		{
			"inputs": [],
			"name": "subtraction",
			"outputs": [
				{
					"internalType": "uint256",
					"name": "",
					"type": "uint256"
				}
			],
			"stateMutability": "pure",
			"type": "function"
		},
		{
			"inputs": [],
			"name": "value",
			"outputs": [
				{
					"internalType": "uint256",
					"name": "",
					"type": "uint256"
				}
			],
			"stateMutability": "view",
			"type": "function"
		}
	]
}